{
  "contractName": "EIP712Base",
  "abi": [
    {
      "inputs": [],
      "name": "ERC712_VERSION",
      "outputs": [
        {
          "internalType": "string",
          "name": "",
          "type": "string"
        }
      ],
      "stateMutability": "view",
      "type": "function"
    },
    {
      "inputs": [],
      "name": "getDomainSeperator",
      "outputs": [
        {
          "internalType": "bytes32",
          "name": "",
          "type": "bytes32"
        }
      ],
      "stateMutability": "view",
      "type": "function"
    },
    {
      "inputs": [],
      "name": "getChainId",
      "outputs": [
        {
          "internalType": "uint256",
          "name": "",
          "type": "uint256"
        }
      ],
      "stateMutability": "view",
      "type": "function"
    }
  ],
  "bytecode": "0x608060405260008060006101000a81548160ff02191690831515021790555034801561002a57600080fd5b506102498061003a6000396000f3fe608060405234801561001057600080fd5b50600436106100415760003560e01c80630f7e59701461004657806320379ee5146100645780633408e47014610082575b600080fd5b61004e6100a0565b60405161005b9190610162565b60405180910390f35b61006c6100d9565b6040516100799190610147565b60405180910390f35b61008a6100e3565b6040516100979190610184565b60405180910390f35b6040518060400160405280600181526020017f310000000000000000000000000000000000000000000000000000000000000081525081565b6000600154905090565b6000804690508091505090565b6100f9816101bb565b82525050565b600061010a8261019f565b61011481856101aa565b93506101248185602086016101cf565b61012d81610202565b840191505092915050565b610141816101c5565b82525050565b600060208201905061015c60008301846100f0565b92915050565b6000602082019050818103600083015261017c81846100ff565b905092915050565b60006020820190506101996000830184610138565b92915050565b600081519050919050565b600082825260208201905092915050565b6000819050919050565b6000819050919050565b60005b838110156101ed5780820151818401526020810190506101d2565b838111156101fc576000848401525b50505050565b6000601f19601f830116905091905056fea2646970667358221220106012ab240641a7f438b5cc26b864e7dc132a957c31cb30828cdf639fae526b64736f6c63430008060033",
  "immutableReferences": {},
  "source": "// SPDX-License-Identifier: MIT\npragma solidity ^0.8.0;\n\nimport {Initializable} from \"./Initializable.sol\";\n\ncontract EIP712Base is Initializable {\n  struct EIP712Domain {\n    string name;\n    string version;\n    address verifyingContract;\n    bytes32 salt;\n  }\n\n  string constant public ERC712_VERSION = \"1\";\n\n  bytes32 internal constant EIP712_DOMAIN_TYPEHASH = keccak256(\n\t  bytes(\n      \"EIP712Domain(string name,string version,address verifyingContract,bytes32 salt)\"\n    )\n  );\n  bytes32 internal domainSeperator;\n\n  // supposed to be called once while initializing.\n  // one of the contracts that inherits this contract follows proxy pattern\n  // so it is not possible to do this in a constructor\n  function _initializeEIP712(\n    string memory name\n  )\n    internal\n    initializer\n  {\n    _setDomainSeperator(name);\n  }\n\n  function _setDomainSeperator(string memory name) internal {\n    domainSeperator = keccak256(\n      abi.encode(\n        EIP712_DOMAIN_TYPEHASH,\n        keccak256(bytes(name)),\n        keccak256(bytes(ERC712_VERSION)),\n        address(this),\n        bytes32(getChainId())\n      )\n    );\n  }\n\n  function getDomainSeperator() public view returns (bytes32) {\n    return domainSeperator;\n  }\n\n  function getChainId() public view returns (uint256) {\n    uint256 id;\n    assembly {\n      id := chainid()\n    }\n    return id;\n  }\n\n  /**\n   * Accept message hash and returns hash message in EIP712 compatible form\n   * So that it can be used to recover signer from signature signed using EIP712 formatted data\n   * https://eips.ethereum.org/EIPS/eip-712\n   * \"\\\\x19\" makes the encoding deterministic\n   * \"\\\\x01\" is the version byte to make it compatible to EIP-191\n   */\n  function toTypedMessageHash(bytes32 messageHash)\n    internal\n    view\n    returns (bytes32)\n  {\n    return\n      keccak256(\n        abi.encodePacked(\"\\x19\\x01\", getDomainSeperator(), messageHash)\n      );\n  }\n}",
  "sourcePath": "/Users/dom/repos/rad-pandas/blockchain/contracts/EIP712Base.sol",
  "compiler": {
    "name": "solc",
    "version": "0.8.6+commit.11564f7e.Emscripten.clang"
  },
  "schemaVersion": "3.4.2",
  "updatedAt": "2021-08-10T21:23:57.834Z",
  "devdoc": {
    "kind": "dev",
    "methods": {},
    "version": 1
  },
  "userdoc": {
    "kind": "user",
    "methods": {},
    "version": 1
  }
}