{
  "contractName": "NativeMetaTransaction",
  "abi": [
    {
      "anonymous": false,
      "inputs": [
        {
          "indexed": false,
          "internalType": "address",
          "name": "userAddress",
          "type": "address"
        },
        {
          "indexed": false,
          "internalType": "address payable",
          "name": "relayerAddress",
          "type": "address"
        },
        {
          "indexed": false,
          "internalType": "bytes",
          "name": "functionSignature",
          "type": "bytes"
        }
      ],
      "name": "MetaTransactionExecuted",
      "type": "event"
    },
    {
      "inputs": [],
      "name": "ERC712_VERSION",
      "outputs": [
        {
          "internalType": "string",
          "name": "",
          "type": "string"
        }
      ],
      "stateMutability": "view",
      "type": "function"
    },
    {
      "inputs": [],
      "name": "getChainId",
      "outputs": [
        {
          "internalType": "uint256",
          "name": "",
          "type": "uint256"
        }
      ],
      "stateMutability": "view",
      "type": "function"
    },
    {
      "inputs": [],
      "name": "getDomainSeperator",
      "outputs": [
        {
          "internalType": "bytes32",
          "name": "",
          "type": "bytes32"
        }
      ],
      "stateMutability": "view",
      "type": "function"
    },
    {
      "inputs": [
        {
          "internalType": "address",
          "name": "userAddress",
          "type": "address"
        },
        {
          "internalType": "bytes",
          "name": "functionSignature",
          "type": "bytes"
        },
        {
          "internalType": "bytes32",
          "name": "sigR",
          "type": "bytes32"
        },
        {
          "internalType": "bytes32",
          "name": "sigS",
          "type": "bytes32"
        },
        {
          "internalType": "uint8",
          "name": "sigV",
          "type": "uint8"
        }
      ],
      "name": "executeMetaTransaction",
      "outputs": [
        {
          "internalType": "bytes",
          "name": "",
          "type": "bytes"
        }
      ],
      "stateMutability": "payable",
      "type": "function"
    },
    {
      "inputs": [
        {
          "internalType": "address",
          "name": "user",
          "type": "address"
        }
      ],
      "name": "getNonce",
      "outputs": [
        {
          "internalType": "uint256",
          "name": "nonce",
          "type": "uint256"
        }
      ],
      "stateMutability": "view",
      "type": "function"
    }
  ],
  "bytecode": "0x608060405260008060006101000a81548160ff02191690831515021790555034801561002a57600080fd5b50610f798061003a6000396000f3fe60806040526004361061004a5760003560e01c80630c53c51c1461004f5780630f7e59701461007f57806320379ee5146100aa5780632d0335ab146100d55780633408e47014610112575b600080fd5b610069600480360381019061006491906106e4565b61013d565b6040516100769190610a7c565b60405180910390f35b34801561008b57600080fd5b506100946103af565b6040516100a19190610a9e565b60405180910390f35b3480156100b657600080fd5b506100bf6103e8565b6040516100cc91906109d7565b60405180910390f35b3480156100e157600080fd5b506100fc60048036038101906100f791906106b7565b6103f2565b6040516101099190610b20565b60405180910390f35b34801561011e57600080fd5b5061012761043b565b6040516101349190610b20565b60405180910390f35b606060006040518060600160405280600260008a73ffffffffffffffffffffffffffffffffffffffff1673ffffffffffffffffffffffffffffffffffffffff1681526020019081526020016000205481526020018873ffffffffffffffffffffffffffffffffffffffff1681526020018781525090506101c08782878787610448565b6101ff576040517f08c379a00000000000000000000000000000000000000000000000000000000081526004016101f690610b00565b60405180910390fd5b6102526001600260008a73ffffffffffffffffffffffffffffffffffffffff1673ffffffffffffffffffffffffffffffffffffffff1681526020019081526020016000205461055190919063ffffffff16565b600260008973ffffffffffffffffffffffffffffffffffffffff1673ffffffffffffffffffffffffffffffffffffffff168152602001908152602001600020819055507f5845892132946850460bff5a0083f71031bc5bf9aadcd40f1de79423eac9b10b8733886040516102c893929190610999565b60405180910390a16000803073ffffffffffffffffffffffffffffffffffffffff16888a6040516020016102fd92919061093a565b6040516020818303038152906040526040516103199190610923565b6000604051808303816000865af19150503d8060008114610356576040519150601f19603f3d011682016040523d82523d6000602084013e61035b565b606091505b5091509150816103a0576040517f08c379a000000000000000000000000000000000000000000000000000000000815260040161039790610ac0565b60405180910390fd5b80935050505095945050505050565b6040518060400160405280600181526020017f310000000000000000000000000000000000000000000000000000000000000081525081565b6000600154905090565b6000600260008373ffffffffffffffffffffffffffffffffffffffff1673ffffffffffffffffffffffffffffffffffffffff168152602001908152602001600020549050919050565b6000804690508091505090565b60008073ffffffffffffffffffffffffffffffffffffffff168673ffffffffffffffffffffffffffffffffffffffff1614156104b9576040517f08c379a00000000000000000000000000000000000000000000000000000000081526004016104b090610ae0565b60405180910390fd5b60016104cc6104c787610567565b6105cf565b838686604051600081526020016040526040516104ec9493929190610a37565b6020604051602081039080840390855afa15801561050e573d6000803e3d6000fd5b5050506020604051035173ffffffffffffffffffffffffffffffffffffffff168673ffffffffffffffffffffffffffffffffffffffff1614905095945050505050565b6000818361055f9190610bdf565b905092915050565b6000604051806080016040528060438152602001610f016043913980519060200120826000015183602001518460400151805190602001206040516020016105b294939291906109f2565b604051602081830303815290604052805190602001209050919050565b60006105d96103e8565b826040516020016105eb929190610962565b604051602081830303815290604052805190602001209050919050565b600061061b61061684610b60565b610b3b565b90508281526020810184848401111561063757610636610d9e565b5b610642848285610c9a565b509392505050565b60008135905061065981610ebb565b92915050565b60008135905061066e81610ed2565b92915050565b600082601f83011261068957610688610d99565b5b8135610699848260208601610608565b91505092915050565b6000813590506106b181610ee9565b92915050565b6000602082840312156106cd576106cc610da8565b5b60006106db8482850161064a565b91505092915050565b600080600080600060a08688031215610700576106ff610da8565b5b600061070e8882890161064a565b955050602086013567ffffffffffffffff81111561072f5761072e610da3565b5b61073b88828901610674565b945050604061074c8882890161065f565b935050606061075d8882890161065f565b925050608061076e888289016106a2565b9150509295509295909350565b61078481610c47565b82525050565b61079381610c35565b82525050565b6107aa6107a582610c35565b610d0d565b82525050565b6107b981610c59565b82525050565b6107d06107cb82610c59565b610d1f565b82525050565b60006107e182610b91565b6107eb8185610ba7565b93506107fb818560208601610ca9565b61080481610dad565b840191505092915050565b600061081a82610b91565b6108248185610bb8565b9350610834818560208601610ca9565b80840191505092915050565b600061084b82610b9c565b6108558185610bc3565b9350610865818560208601610ca9565b61086e81610dad565b840191505092915050565b6000610886601c83610bc3565b915061089182610dcb565b602082019050919050565b60006108a9600283610bd4565b91506108b482610df4565b600282019050919050565b60006108cc602583610bc3565b91506108d782610e1d565b604082019050919050565b60006108ef602183610bc3565b91506108fa82610e6c565b604082019050919050565b61090e81610c83565b82525050565b61091d81610c8d565b82525050565b600061092f828461080f565b915081905092915050565b6000610946828561080f565b91506109528284610799565b6014820191508190509392505050565b600061096d8261089c565b915061097982856107bf565b60208201915061098982846107bf565b6020820191508190509392505050565b60006060820190506109ae600083018661078a565b6109bb602083018561077b565b81810360408301526109cd81846107d6565b9050949350505050565b60006020820190506109ec60008301846107b0565b92915050565b6000608082019050610a0760008301876107b0565b610a146020830186610905565b610a21604083018561078a565b610a2e60608301846107b0565b95945050505050565b6000608082019050610a4c60008301876107b0565b610a596020830186610914565b610a6660408301856107b0565b610a7360608301846107b0565b95945050505050565b60006020820190508181036000830152610a9681846107d6565b905092915050565b60006020820190508181036000830152610ab88184610840565b905092915050565b60006020820190508181036000830152610ad981610879565b9050919050565b60006020820190508181036000830152610af9816108bf565b9050919050565b60006020820190508181036000830152610b19816108e2565b9050919050565b6000602082019050610b356000830184610905565b92915050565b6000610b45610b56565b9050610b518282610cdc565b919050565b6000604051905090565b600067ffffffffffffffff821115610b7b57610b7a610d6a565b5b610b8482610dad565b9050602081019050919050565b600081519050919050565b600081519050919050565b600082825260208201905092915050565b600081905092915050565b600082825260208201905092915050565b600081905092915050565b6000610bea82610c83565b9150610bf583610c83565b9250827fffffffffffffffffffffffffffffffffffffffffffffffffffffffffffffffff03821115610c2a57610c29610d3b565b5b828201905092915050565b6000610c4082610c63565b9050919050565b6000610c5282610c63565b9050919050565b6000819050919050565b600073ffffffffffffffffffffffffffffffffffffffff82169050919050565b6000819050919050565b600060ff82169050919050565b82818337600083830152505050565b60005b83811015610cc7578082015181840152602081019050610cac565b83811115610cd6576000848401525b50505050565b610ce582610dad565b810181811067ffffffffffffffff82111715610d0457610d03610d6a565b5b80604052505050565b6000610d1882610d29565b9050919050565b6000819050919050565b6000610d3482610dbe565b9050919050565b7f4e487b7100000000000000000000000000000000000000000000000000000000600052601160045260246000fd5b7f4e487b7100000000000000000000000000000000000000000000000000000000600052604160045260246000fd5b600080fd5b600080fd5b600080fd5b600080fd5b6000601f19601f8301169050919050565b60008160601b9050919050565b7f46756e6374696f6e2063616c6c206e6f74207375636365737366756c00000000600082015250565b7f1901000000000000000000000000000000000000000000000000000000000000600082015250565b7f4e61746976654d6574615472616e73616374696f6e3a20494e56414c49445f5360008201527f49474e4552000000000000000000000000000000000000000000000000000000602082015250565b7f5369676e657220616e64207369676e617475726520646f206e6f74206d61746360008201527f6800000000000000000000000000000000000000000000000000000000000000602082015250565b610ec481610c35565b8114610ecf57600080fd5b50565b610edb81610c59565b8114610ee657600080fd5b50565b610ef281610c8d565b8114610efd57600080fd5b5056fe4d6574615472616e73616374696f6e2875696e74323536206e6f6e63652c616464726573732066726f6d2c62797465732066756e6374696f6e5369676e617475726529a2646970667358221220051d2a64620e18a3c01260006d165e674f0ddf73482bf27c7f61aef0f0e0ec7b64736f6c63430008060033",
  "immutableReferences": {},
  "source": "// SPDX-License-Identifier: MIT\r\npragma solidity ^0.8.0;\r\n\r\nimport {SafeMath} from  \"@openzeppelin/contracts/utils/math/SafeMath.sol\";\r\nimport {EIP712Base} from \"./EIP712Base.sol\";\r\n\r\ncontract NativeMetaTransaction is EIP712Base {\r\n  using SafeMath for uint256;\r\n\r\n  bytes32 private constant META_TRANSACTION_TYPEHASH = keccak256(\r\n    bytes(\r\n      \"MetaTransaction(uint256 nonce,address from,bytes functionSignature)\"\r\n    )\r\n  );\r\n\r\n  event MetaTransactionExecuted(\r\n    address userAddress,\r\n    address payable relayerAddress,\r\n    bytes functionSignature\r\n  );\r\n\r\n  mapping(address => uint256) nonces;\r\n\r\n  /*\r\n   * Meta transaction structure.\r\n   * No point of including value field here as if user is doing value transfer then he has the funds to pay for gas\r\n   * He should call the desired function directly in that case.\r\n   */\r\n  struct MetaTransaction {\r\n    uint256 nonce;\r\n    address from;\r\n    bytes functionSignature;\r\n  }\r\n\r\n  function executeMetaTransaction(\r\n    address userAddress,\r\n    bytes memory functionSignature,\r\n    bytes32 sigR,\r\n    bytes32 sigS,\r\n    uint8 sigV\r\n  ) public payable returns (bytes memory) {\r\n    MetaTransaction memory metaTx = MetaTransaction({\r\n      nonce: nonces[userAddress],\r\n      from: userAddress,\r\n      functionSignature: functionSignature\r\n    });\r\n\r\n    require(\r\n      verify(userAddress, metaTx, sigR, sigS, sigV),\r\n      \"Signer and signature do not match\"\r\n    );\r\n\r\n    // increase nonce for user (to avoid re-use)\r\n    nonces[userAddress] = nonces[userAddress].add(1);\r\n\r\n    emit MetaTransactionExecuted(\r\n      userAddress,\r\n      payable(msg.sender),\r\n      functionSignature\r\n    );\r\n\r\n    // Append userAddress and relayer address at the end to extract it from calling context\r\n    (bool success, bytes memory returnData) = address(this).call(\r\n      abi.encodePacked(functionSignature, userAddress)\r\n    );\r\n    require(success, \"Function call not successful\");\r\n\r\n    return returnData;\r\n  }\r\n\r\n  function hashMetaTransaction(MetaTransaction memory metaTx)\r\n    internal\r\n    pure\r\n    returns (bytes32)\r\n  {\r\n    return\r\n      keccak256(\r\n        abi.encode(\r\n          META_TRANSACTION_TYPEHASH,\r\n          metaTx.nonce,\r\n          metaTx.from,\r\n          keccak256(metaTx.functionSignature)\r\n        )\r\n      );\r\n  }\r\n\r\n  function getNonce(address user) public view returns (uint256 nonce) {\r\n    nonce = nonces[user];\r\n  }\r\n\r\n  function verify(\r\n    address signer,\r\n    MetaTransaction memory metaTx,\r\n    bytes32 sigR,\r\n    bytes32 sigS,\r\n    uint8 sigV\r\n  ) internal view returns (bool) {\r\n    require(signer != address(0), \"NativeMetaTransaction: INVALID_SIGNER\");\r\n    return\r\n      signer ==\r\n      ecrecover(\r\n        toTypedMessageHash(hashMetaTransaction(metaTx)),\r\n        sigV,\r\n        sigR,\r\n        sigS\r\n      );\r\n  }\r\n}",
  "sourcePath": "C:/Users/Josh/Documents/Josh/GitHub/rad-pandas/blockchain/contracts/NativeMetaTransaction.sol",
  "compiler": {
    "name": "solc",
    "version": "0.8.6+commit.11564f7e.Emscripten.clang"
  },
  "schemaVersion": "3.3.3",
  "updatedAt": "2021-08-08T00:52:15.826Z",
  "devdoc": {
    "kind": "dev",
    "methods": {},
    "version": 1
  },
  "userdoc": {
    "kind": "user",
    "methods": {},
    "version": 1
  }
}