{
  "contractName": "ProxyRegistry",
  "abi": [
    {
      "inputs": [
        {
          "internalType": "address",
          "name": "",
          "type": "address"
        }
      ],
      "name": "proxies",
      "outputs": [
        {
          "internalType": "contract OwnableDelegateProxy",
          "name": "",
          "type": "address"
        }
      ],
      "stateMutability": "view",
      "type": "function"
    }
  ],
  "bytecode": "0x608060405234801561001057600080fd5b506101a7806100206000396000f3fe608060405234801561001057600080fd5b506004361061002b5760003560e01c8063c455279114610030575b600080fd5b61004a600480360381019061004591906100a8565b610060565b60405161005791906100e4565b60405180910390f35b60006020528060005260406000206000915054906101000a900473ffffffffffffffffffffffffffffffffffffffff1681565b6000813590506100a28161015a565b92915050565b6000602082840312156100be576100bd610155565b5b60006100cc84828501610093565b91505092915050565b6100de81610131565b82525050565b60006020820190506100f960008301846100d5565b92915050565b600061010a82610111565b9050919050565b600073ffffffffffffffffffffffffffffffffffffffff82169050919050565b600061013c82610143565b9050919050565b600061014e82610111565b9050919050565b600080fd5b610163816100ff565b811461016e57600080fd5b5056fea2646970667358221220f6df2119f6a8bf6dae789b759059060acc135b7ec4f9a75b02667e2062e35df464736f6c63430008060033",
  "immutableReferences": {},
  "source": "// SPDX-License-Identifier: MIT\r\npragma solidity ^0.8.0;\r\n\r\nimport \"@openzeppelin/contracts/token/ERC721/ERC721.sol\";\r\nimport \"@openzeppelin/contracts/token/ERC721/extensions/ERC721Enumerable.sol\";\r\nimport \"@openzeppelin/contracts/access/Ownable.sol\";\r\nimport \"@openzeppelin/contracts/utils/math/SafeMath.sol\";\r\nimport \"@openzeppelin/contracts/utils/Strings.sol\";\r\n\r\nimport \"./ContentMixin.sol\";\r\nimport \"./NativeMetaTransaction.sol\";\r\n\r\ncontract OwnableDelegateProxy {}\r\n\r\ncontract ProxyRegistry {\r\n  mapping(address => OwnableDelegateProxy) public proxies;\r\n}\r\n\r\n/**\r\n * @title ERC721Tradable\r\n * ERC721Tradable - ERC721 contract that whitelists a trading address, and has minting functionality.\r\n */\r\nabstract contract ERC721Tradable is ContextMixin, ERC721Enumerable, NativeMetaTransaction, Ownable {\r\n  using SafeMath for uint256;\r\n\r\n  address proxyRegistryAddress;\r\n  uint256 private _currentTokenId = 0;\r\n\r\n  constructor(\r\n    string memory _name,\r\n    string memory _symbol,\r\n    address _proxyRegistryAddress\r\n  ) ERC721(_name, _symbol) {\r\n    proxyRegistryAddress = _proxyRegistryAddress;\r\n    _initializeEIP712(_name);\r\n  }\r\n\r\n  /**\r\n   * @dev Mints a token to an address with a tokenURI.\r\n   * @param _to address of the future owner of the token\r\n   */\r\n  function mintTo(address _to) public onlyOwner {\r\n    uint256 newTokenId = _getNextTokenId();\r\n    _mint(_to, newTokenId);\r\n    _incrementTokenId();\r\n  }\r\n\r\n  /**\r\n   * @dev calculates the next token ID based on value of _currentTokenId\r\n   * @return uint256 for the next token ID\r\n   */\r\n  function _getNextTokenId() private view returns (uint256) {\r\n    return _currentTokenId.add(1);\r\n  }\r\n\r\n  /**\r\n   * @dev increments the value of _currentTokenId\r\n   */\r\n  function _incrementTokenId() private {\r\n    _currentTokenId++;\r\n  }\r\n\r\n  function baseTokenURI() virtual public pure returns (string memory);\r\n\r\n  function tokenURI(uint256 _tokenId) override public pure returns (string memory) {\r\n    return string(abi.encodePacked(baseTokenURI(), Strings.toString(_tokenId)));\r\n  }\r\n\r\n  /**\r\n   * Override isApprovedForAll to whitelist user's OpenSea proxy accounts to enable gas-less listings.\r\n   */\r\n  function isApprovedForAll(address owner, address operator)\r\n    override\r\n    public\r\n    view\r\n    returns (bool)\r\n  {\r\n    // Whitelist OpenSea proxy contract for easy trading.\r\n    ProxyRegistry proxyRegistry = ProxyRegistry(proxyRegistryAddress);\r\n    if (address(proxyRegistry.proxies(owner)) == operator) {\r\n      return true;\r\n    }\r\n\r\n    return super.isApprovedForAll(owner, operator);\r\n  }\r\n\r\n  /**\r\n   * This is used instead of msg.sender as transactions won't be sent by the original token owner, but by OpenSea.\r\n   */\r\n  function _msgSender()\r\n    internal\r\n    override\r\n    view\r\n    returns (address sender)\r\n  {\r\n    return ContextMixin.msgSender();\r\n  }\r\n}",
  "sourcePath": "C:\\Users\\Josh\\Documents\\Josh\\GitHub\\rad-pandas\\blockchain\\contracts\\ERC721Tradable.sol",
  "compiler": {
    "name": "solc",
    "version": "0.8.6+commit.11564f7e.Emscripten.clang"
  },
  "schemaVersion": "3.3.3",
  "updatedAt": "2021-08-09T17:50:51.778Z",
  "devdoc": {
    "kind": "dev",
    "methods": {},
    "version": 1
  },
  "userdoc": {
    "kind": "user",
    "methods": {},
    "version": 1
  }
}