{
  "contractName": "RadPandaFactory",
  "abi": [
    {
      "inputs": [
        {
          "internalType": "address",
          "name": "_proxyRegistryAddress",
          "type": "address"
        },
        {
          "internalType": "address",
          "name": "_nftAddress",
          "type": "address"
        }
      ],
      "stateMutability": "nonpayable",
      "type": "constructor"
    },
    {
      "anonymous": false,
      "inputs": [
        {
          "indexed": true,
          "internalType": "address",
          "name": "previousOwner",
          "type": "address"
        },
        {
          "indexed": true,
          "internalType": "address",
          "name": "newOwner",
          "type": "address"
        }
      ],
      "name": "OwnershipTransferred",
      "type": "event"
    },
    {
      "anonymous": false,
      "inputs": [
        {
          "indexed": true,
          "internalType": "address",
          "name": "from",
          "type": "address"
        },
        {
          "indexed": true,
          "internalType": "address",
          "name": "to",
          "type": "address"
        },
        {
          "indexed": true,
          "internalType": "uint256",
          "name": "tokenId",
          "type": "uint256"
        }
      ],
      "name": "Transfer",
      "type": "event"
    },
    {
      "inputs": [],
      "name": "baseURI",
      "outputs": [
        {
          "internalType": "string",
          "name": "",
          "type": "string"
        }
      ],
      "stateMutability": "view",
      "type": "function"
    },
    {
      "inputs": [],
      "name": "nftAddress",
      "outputs": [
        {
          "internalType": "address",
          "name": "",
          "type": "address"
        }
      ],
      "stateMutability": "view",
      "type": "function"
    },
    {
      "inputs": [],
      "name": "owner",
      "outputs": [
        {
          "internalType": "address",
          "name": "",
          "type": "address"
        }
      ],
      "stateMutability": "view",
      "type": "function"
    },
    {
      "inputs": [],
      "name": "proxyRegistryAddress",
      "outputs": [
        {
          "internalType": "address",
          "name": "",
          "type": "address"
        }
      ],
      "stateMutability": "view",
      "type": "function"
    },
    {
      "inputs": [],
      "name": "renounceOwnership",
      "outputs": [],
      "stateMutability": "nonpayable",
      "type": "function"
    },
    {
      "inputs": [],
      "name": "name",
      "outputs": [
        {
          "internalType": "string",
          "name": "",
          "type": "string"
        }
      ],
      "stateMutability": "pure",
      "type": "function"
    },
    {
      "inputs": [],
      "name": "symbol",
      "outputs": [
        {
          "internalType": "string",
          "name": "",
          "type": "string"
        }
      ],
      "stateMutability": "pure",
      "type": "function"
    },
    {
      "inputs": [],
      "name": "supportsFactoryInterface",
      "outputs": [
        {
          "internalType": "bool",
          "name": "",
          "type": "bool"
        }
      ],
      "stateMutability": "pure",
      "type": "function"
    },
    {
      "inputs": [],
      "name": "numOptions",
      "outputs": [
        {
          "internalType": "uint256",
          "name": "",
          "type": "uint256"
        }
      ],
      "stateMutability": "view",
      "type": "function"
    },
    {
      "inputs": [
        {
          "internalType": "address",
          "name": "newOwner",
          "type": "address"
        }
      ],
      "name": "transferOwnership",
      "outputs": [],
      "stateMutability": "nonpayable",
      "type": "function"
    },
    {
      "inputs": [
        {
          "internalType": "uint256",
          "name": "_optionId",
          "type": "uint256"
        },
        {
          "internalType": "address",
          "name": "_toAddress",
          "type": "address"
        }
      ],
      "name": "mint",
      "outputs": [],
      "stateMutability": "nonpayable",
      "type": "function"
    },
    {
      "inputs": [
        {
          "internalType": "uint256",
          "name": "_optionId",
          "type": "uint256"
        }
      ],
      "name": "canMint",
      "outputs": [
        {
          "internalType": "bool",
          "name": "",
          "type": "bool"
        }
      ],
      "stateMutability": "view",
      "type": "function"
    },
    {
      "inputs": [
        {
          "internalType": "uint256",
          "name": "_optionId",
          "type": "uint256"
        }
      ],
      "name": "tokenURI",
      "outputs": [
        {
          "internalType": "string",
          "name": "",
          "type": "string"
        }
      ],
      "stateMutability": "view",
      "type": "function"
    },
    {
      "inputs": [
        {
          "internalType": "address",
          "name": "_from",
          "type": "address"
        },
        {
          "internalType": "address",
          "name": "_to",
          "type": "address"
        },
        {
          "internalType": "uint256",
          "name": "_tokenId",
          "type": "uint256"
        }
      ],
      "name": "transferFrom",
      "outputs": [],
      "stateMutability": "nonpayable",
      "type": "function"
    },
    {
      "inputs": [
        {
          "internalType": "address",
          "name": "_owner",
          "type": "address"
        },
        {
          "internalType": "address",
          "name": "_operator",
          "type": "address"
        }
      ],
      "name": "isApprovedForAll",
      "outputs": [
        {
          "internalType": "bool",
          "name": "",
          "type": "bool"
        }
      ],
      "stateMutability": "view",
      "type": "function"
    },
    {
      "inputs": [
        {
          "internalType": "uint256",
          "name": "_tokenId",
          "type": "uint256"
        }
      ],
      "name": "ownerOf",
      "outputs": [
        {
          "internalType": "address",
          "name": "_owner",
          "type": "address"
        }
      ],
      "stateMutability": "view",
      "type": "function"
    }
  ],
  "bytecode": "0x60806040526040518060600160405280602f815260200162001c25602f91396003908051906020019062000035929190620002be565b50612710600455600160055560006006553480156200005357600080fd5b5060405162001c5438038062001c54833981810160405281019062000079919062000385565b620000996200008d6200014560201b60201c565b6200014d60201b60201c565b81600160006101000a81548173ffffffffffffffffffffffffffffffffffffffff021916908373ffffffffffffffffffffffffffffffffffffffff16021790555080600260006101000a81548173ffffffffffffffffffffffffffffffffffffffff021916908373ffffffffffffffffffffffffffffffffffffffff1602179055506200013d6000620001316200021160201b60201c565b6200023a60201b60201c565b50506200050b565b600033905090565b60008060009054906101000a900473ffffffffffffffffffffffffffffffffffffffff169050816000806101000a81548173ffffffffffffffffffffffffffffffffffffffff021916908373ffffffffffffffffffffffffffffffffffffffff1602179055508173ffffffffffffffffffffffffffffffffffffffff168173ffffffffffffffffffffffffffffffffffffffff167f8be0079c531659141344cd1fd0a4f28419497f9722a3daafe3b4186f6b6457e060405160405180910390a35050565b60008060009054906101000a900473ffffffffffffffffffffffffffffffffffffffff16905090565b60005b600554811015620002b957808273ffffffffffffffffffffffffffffffffffffffff168473ffffffffffffffffffffffffffffffffffffffff167fddf252ad1be2c89b69c2b068fc378daa952ba7f163c4a11628f55a4df523b3ef60405160405180910390a48080620002b09062000440565b9150506200023d565b505050565b828054620002cc906200040a565b90600052602060002090601f016020900481019282620002f057600085556200033c565b82601f106200030b57805160ff19168380011785556200033c565b828001600101855582156200033c579182015b828111156200033b5782518255916020019190600101906200031e565b5b5090506200034b91906200034f565b5090565b5b808211156200036a57600081600090555060010162000350565b5090565b6000815190506200037f81620004f1565b92915050565b600080604083850312156200039f576200039e620004ec565b5b6000620003af858286016200036e565b9250506020620003c2858286016200036e565b9150509250929050565b6000620003d982620003e0565b9050919050565b600073ffffffffffffffffffffffffffffffffffffffff82169050919050565b6000819050919050565b600060028204905060018216806200042357607f821691505b602082108114156200043a5762000439620004bd565b5b50919050565b60006200044d8262000400565b91507fffffffffffffffffffffffffffffffffffffffffffffffffffffffffffffffff8214156200048357620004826200048e565b5b600182019050919050565b7f4e487b7100000000000000000000000000000000000000000000000000000000600052601160045260246000fd5b7f4e487b7100000000000000000000000000000000000000000000000000000000600052602260045260246000fd5b600080fd5b620004fc81620003cc565b81146200050857600080fd5b50565b61170a806200051b6000396000f3fe608060405234801561001057600080fd5b50600436106101005760003560e01c80638da5cb5b11610097578063c87b56dd11610066578063c87b56dd14610279578063cd7c0326146102a9578063e985e9c5146102c7578063f2fde38b146102f757610100565b80638da5cb5b1461020357806394bf804d1461022157806395d89b411461023d578063c311c5231461025b57610100565b80635dd871a3116100d35780635dd871a31461017b5780636352211e146101ab5780636c0360eb146101db578063715018a6146101f957610100565b806306fdde031461010557806323b872dd146101235780634b97aed91461013f5780635bf8633a1461015d575b600080fd5b61010d610313565b60405161011a9190611211565b60405180910390f35b61013d60048036038101906101389190610f13565b610350565b005b61014761035f565b6040516101549190611273565b60405180910390f35b610165610369565b60405161017291906111db565b60405180910390f35b61019560048036038101906101909190610f93565b61038f565b6040516101a291906111f6565b60405180910390f35b6101c560048036038101906101c09190610f93565b610478565b6040516101d291906111db565b60405180910390f35b6101e3610489565b6040516101f09190611211565b60405180910390f35b610201610517565b005b61020b61059f565b60405161021891906111db565b60405180910390f35b61023b60048036038101906102369190610fed565b6105c8565b005b6102456107ba565b6040516102529190611211565b60405180910390f35b6102636107f7565b60405161027091906111f6565b60405180910390f35b610293600480360381019061028e9190610f93565b610800565b6040516102a09190611211565b60405180910390f35b6102b1610834565b6040516102be91906111db565b60405180910390f35b6102e160048036038101906102dc9190610ed3565b61085a565b6040516102ee91906111f6565b60405180910390f35b610311600480360381019061030c9190610ea6565b610a0e565b005b60606040518060400160405280601681526020017f5261644b696e67646f6d2050616e6461732053616c6500000000000000000000815250905090565b61035a81836105c8565b505050565b6000600554905090565b600260009054906101000a900473ffffffffffffffffffffffffffffffffffffffff1681565b600060055482106103a35760009050610473565b6000600260009054906101000a900473ffffffffffffffffffffffffffffffffffffffff16905060008173ffffffffffffffffffffffffffffffffffffffff166318160ddd6040518163ffffffff1660e01b815260040160206040518083038186803b15801561041257600080fd5b505afa158015610426573d6000803e3d6000fd5b505050506040513d601f19601f8201168201806040525081019061044a9190610fc0565b9050600060065485141561045d57600190505b8060045461046b9190611351565b821093505050505b919050565b600061048261059f565b9050919050565b6003805461049690611412565b80601f01602080910402602001604051908101604052809291908181526020018280546104c290611412565b801561050f5780601f106104e45761010080835404028352916020019161050f565b820191906000526020600020905b8154815290600101906020018083116104f257829003601f168201915b505050505081565b61051f610aad565b73ffffffffffffffffffffffffffffffffffffffff1661053d61059f565b73ffffffffffffffffffffffffffffffffffffffff1614610593576040517f08c379a000000000000000000000000000000000000000000000000000000000815260040161058a90611253565b60405180910390fd5b61059d6000610ab5565b565b60008060009054906101000a900473ffffffffffffffffffffffffffffffffffffffff16905090565b6000600160009054906101000a900473ffffffffffffffffffffffffffffffffffffffff1690506105f7610aad565b73ffffffffffffffffffffffffffffffffffffffff168173ffffffffffffffffffffffffffffffffffffffff1663c455279161063161059f565b6040518263ffffffff1660e01b815260040161064d91906111db565b60206040518083038186803b15801561066557600080fd5b505afa158015610679573d6000803e3d6000fd5b505050506040513d601f19601f8201168201806040525081019061069d9190610f66565b73ffffffffffffffffffffffffffffffffffffffff1614806106f857506106c2610aad565b73ffffffffffffffffffffffffffffffffffffffff166106e061059f565b73ffffffffffffffffffffffffffffffffffffffff16145b610705576107046114be565b5b61070e8361038f565b61071757600080fd5b6000600260009054906101000a900473ffffffffffffffffffffffffffffffffffffffff1690506006548414156107b4578073ffffffffffffffffffffffffffffffffffffffff1663755edd17846040518263ffffffff1660e01b815260040161078191906111db565b600060405180830381600087803b15801561079b57600080fd5b505af11580156107af573d6000803e3d6000fd5b505050505b50505050565b60606040518060400160405280600581526020017f50414e4441000000000000000000000000000000000000000000000000000000815250905090565b60006001905090565b6060600361080d83610b79565b60405160200161081e9291906111ac565b6040516020818303038152906040529050919050565b600160009054906101000a900473ffffffffffffffffffffffffffffffffffffffff1681565b60008273ffffffffffffffffffffffffffffffffffffffff1661087b61059f565b73ffffffffffffffffffffffffffffffffffffffff161480156108c957508173ffffffffffffffffffffffffffffffffffffffff168373ffffffffffffffffffffffffffffffffffffffff16145b156108d75760019050610a08565b6000600160009054906101000a900473ffffffffffffffffffffffffffffffffffffffff1690508373ffffffffffffffffffffffffffffffffffffffff1661091d61059f565b73ffffffffffffffffffffffffffffffffffffffff161480156109f357508273ffffffffffffffffffffffffffffffffffffffff168173ffffffffffffffffffffffffffffffffffffffff1663c4552791866040518263ffffffff1660e01b815260040161098b91906111db565b60206040518083038186803b1580156109a357600080fd5b505afa1580156109b7573d6000803e3d6000fd5b505050506040513d601f19601f820116820180604052508101906109db9190610f66565b73ffffffffffffffffffffffffffffffffffffffff16145b15610a02576001915050610a08565b60009150505b92915050565b610a16610aad565b73ffffffffffffffffffffffffffffffffffffffff16610a3461059f565b73ffffffffffffffffffffffffffffffffffffffff1614610a8a576040517f08c379a0000000000000000000000000000000000000000000000000000000008152600401610a8190611253565b60405180910390fd5b6000610a9461059f565b9050610a9f82610cda565b610aa98183610dd2565b5050565b600033905090565b60008060009054906101000a900473ffffffffffffffffffffffffffffffffffffffff169050816000806101000a81548173ffffffffffffffffffffffffffffffffffffffff021916908373ffffffffffffffffffffffffffffffffffffffff1602179055508173ffffffffffffffffffffffffffffffffffffffff168173ffffffffffffffffffffffffffffffffffffffff167f8be0079c531659141344cd1fd0a4f28419497f9722a3daafe3b4186f6b6457e060405160405180910390a35050565b60606000821415610bc1576040518060400160405280600181526020017f30000000000000000000000000000000000000000000000000000000000000008152509050610cd5565b600082905060005b60008214610bf3578080610bdc90611444565b915050600a82610bec9190611320565b9150610bc9565b60008167ffffffffffffffff811115610c0f57610c0e6115a9565b5b6040519080825280601f01601f191660200182016040528015610c415781602001600182028036833780820191505090505b5090505b60008514610cce57600182610c5a9190611351565b9150600a85610c69919061148d565b6030610c7591906112ca565b60f81b818381518110610c8b57610c8a61157a565b5b60200101907effffffffffffffffffffffffffffffffffffffffffffffffffffffffffffff1916908160001a905350600a85610cc79190611320565b9450610c45565b8093505050505b919050565b610ce2610aad565b73ffffffffffffffffffffffffffffffffffffffff16610d0061059f565b73ffffffffffffffffffffffffffffffffffffffff1614610d56576040517f08c379a0000000000000000000000000000000000000000000000000000000008152600401610d4d90611253565b60405180910390fd5b600073ffffffffffffffffffffffffffffffffffffffff168173ffffffffffffffffffffffffffffffffffffffff161415610dc6576040517f08c379a0000000000000000000000000000000000000000000000000000000008152600401610dbd90611233565b60405180910390fd5b610dcf81610ab5565b50565b60005b600554811015610e4d57808273ffffffffffffffffffffffffffffffffffffffff168473ffffffffffffffffffffffffffffffffffffffff167fddf252ad1be2c89b69c2b068fc378daa952ba7f163c4a11628f55a4df523b3ef60405160405180910390a48080610e4590611444565b915050610dd5565b505050565b600081359050610e618161168f565b92915050565b600081519050610e76816116a6565b92915050565b600081359050610e8b816116bd565b92915050565b600081519050610ea0816116bd565b92915050565b600060208284031215610ebc57610ebb6115d8565b5b6000610eca84828501610e52565b91505092915050565b60008060408385031215610eea57610ee96115d8565b5b6000610ef885828601610e52565b9250506020610f0985828601610e52565b9150509250929050565b600080600060608486031215610f2c57610f2b6115d8565b5b6000610f3a86828701610e52565b9350506020610f4b86828701610e52565b9250506040610f5c86828701610e7c565b9150509250925092565b600060208284031215610f7c57610f7b6115d8565b5b6000610f8a84828501610e67565b91505092915050565b600060208284031215610fa957610fa86115d8565b5b6000610fb784828501610e7c565b91505092915050565b600060208284031215610fd657610fd56115d8565b5b6000610fe484828501610e91565b91505092915050565b60008060408385031215611004576110036115d8565b5b600061101285828601610e7c565b925050602061102385828601610e52565b9150509250929050565b61103681611385565b82525050565b61104581611397565b82525050565b6000611056826112a3565b61106081856112ae565b93506110708185602086016113df565b611079816115dd565b840191505092915050565b600061108f826112a3565b61109981856112bf565b93506110a98185602086016113df565b80840191505092915050565b600081546110c281611412565b6110cc81866112bf565b945060018216600081146110e757600181146110f85761112b565b60ff1983168652818601935061112b565b6111018561128e565b60005b8381101561112357815481890152600182019150602081019050611104565b838801955050505b50505092915050565b60006111416026836112ae565b915061114c826115ee565b604082019050919050565b60006111646005836112bf565b915061116f8261163d565b600582019050919050565b60006111876020836112ae565b915061119282611666565b602082019050919050565b6111a6816113d5565b82525050565b60006111b882856110b5565b91506111c48284611084565b91506111cf82611157565b91508190509392505050565b60006020820190506111f0600083018461102d565b92915050565b600060208201905061120b600083018461103c565b92915050565b6000602082019050818103600083015261122b818461104b565b905092915050565b6000602082019050818103600083015261124c81611134565b9050919050565b6000602082019050818103600083015261126c8161117a565b9050919050565b6000602082019050611288600083018461119d565b92915050565b60008190508160005260206000209050919050565b600081519050919050565b600082825260208201905092915050565b600081905092915050565b60006112d5826113d5565b91506112e0836113d5565b9250827fffffffffffffffffffffffffffffffffffffffffffffffffffffffffffffffff03821115611315576113146114ed565b5b828201905092915050565b600061132b826113d5565b9150611336836113d5565b9250826113465761134561151c565b5b828204905092915050565b600061135c826113d5565b9150611367836113d5565b92508282101561137a576113796114ed565b5b828203905092915050565b6000611390826113b5565b9050919050565b60008115159050919050565b60006113ae82611385565b9050919050565b600073ffffffffffffffffffffffffffffffffffffffff82169050919050565b6000819050919050565b60005b838110156113fd5780820151818401526020810190506113e2565b8381111561140c576000848401525b50505050565b6000600282049050600182168061142a57607f821691505b6020821081141561143e5761143d61154b565b5b50919050565b600061144f826113d5565b91507fffffffffffffffffffffffffffffffffffffffffffffffffffffffffffffffff821415611482576114816114ed565b5b600182019050919050565b6000611498826113d5565b91506114a3836113d5565b9250826114b3576114b261151c565b5b828206905092915050565b7f4e487b7100000000000000000000000000000000000000000000000000000000600052600160045260246000fd5b7f4e487b7100000000000000000000000000000000000000000000000000000000600052601160045260246000fd5b7f4e487b7100000000000000000000000000000000000000000000000000000000600052601260045260246000fd5b7f4e487b7100000000000000000000000000000000000000000000000000000000600052602260045260246000fd5b7f4e487b7100000000000000000000000000000000000000000000000000000000600052603260045260246000fd5b7f4e487b7100000000000000000000000000000000000000000000000000000000600052604160045260246000fd5b600080fd5b6000601f19601f8301169050919050565b7f4f776e61626c653a206e6577206f776e657220697320746865207a65726f206160008201527f6464726573730000000000000000000000000000000000000000000000000000602082015250565b7f2e6a736f6e000000000000000000000000000000000000000000000000000000600082015250565b7f4f776e61626c653a2063616c6c6572206973206e6f7420746865206f776e6572600082015250565b61169881611385565b81146116a357600080fd5b50565b6116af816113a3565b81146116ba57600080fd5b50565b6116c6816113d5565b81146116d157600080fd5b5056fea2646970667358221220bee85c5e548a708a9560c9463e904e997acb95a9fa383074fc92cb34cc6ee70a64736f6c6343000806003368747470733a2f2f616e696d616c2d6b696e67646f6d2e7261642e6c6976652f70616e6461732f666163746f72792f",
  "immutableReferences": {},
  "source": "// SPDX-License-Identifier: MIT\r\npragma solidity ^0.8.0;\r\n\r\nimport \"@openzeppelin/contracts/access/Ownable.sol\";\r\nimport \"@openzeppelin/contracts/utils/Strings.sol\";\r\nimport \"./IFactoryERC721.sol\";\r\nimport \"./RadPanda.sol\";\r\n\r\ncontract RadPandaFactory is FactoryERC721, Ownable {\r\n  using Strings for string;\r\n\r\n  event Transfer(\r\n    address indexed from,\r\n    address indexed to,\r\n    uint256 indexed tokenId\r\n  );\r\n\r\n  address public proxyRegistryAddress;\r\n  address public nftAddress;\r\n  string public baseURI = \"https://animal-kingdom.rad.live/pandas/factory/\";\r\n\r\n  /// @dev Limit max token supply to ten thousand.\r\n  uint256 MAX_SUPPLY = 10000;\r\n\r\n  uint256 NUM_OPTIONS = 1;\r\n  uint256 ONE_PANDA = 0;\r\n\r\n  constructor(address _proxyRegistryAddress, address _nftAddress) {\r\n    proxyRegistryAddress = _proxyRegistryAddress;\r\n    nftAddress = _nftAddress;\r\n\r\n    fireTransferEvents(address(0), owner());\r\n  }\r\n\r\n  function name() override external pure returns (string memory) {\r\n    return \"RadKingdom Pandas Sale\";\r\n  }\r\n\r\n  function symbol() override external pure returns (string memory) {\r\n    return \"PANDA\";\r\n  }\r\n\r\n  function supportsFactoryInterface() override public pure returns (bool) {\r\n    return true;\r\n  }\r\n\r\n  function numOptions() override public view returns (uint256) {\r\n    return NUM_OPTIONS;\r\n  }\r\n\r\n  function transferOwnership(address newOwner) override public onlyOwner {\r\n    address _prevOwner = owner();\r\n    super.transferOwnership(newOwner);\r\n\r\n    fireTransferEvents(_prevOwner, newOwner);\r\n  }\r\n\r\n  function fireTransferEvents(address _from, address _to) private {\r\n    for (uint256 i = 0; i < NUM_OPTIONS; i++) {\r\n      emit Transfer(_from, _to, i);\r\n    }\r\n  }\r\n\r\n  function mint(uint256 _optionId, address _toAddress) override public {\r\n    ProxyRegistry proxyRegistry = ProxyRegistry(proxyRegistryAddress);\r\n    assert(address(proxyRegistry.proxies(owner())) == _msgSender() || owner() == _msgSender());\r\n    require(canMint(_optionId));\r\n\r\n    RadPanda radPanda = RadPanda(nftAddress);\r\n    if (_optionId == ONE_PANDA) {\r\n      radPanda.mintTo(_toAddress);\r\n    }\r\n  }\r\n\r\n  function canMint(uint256 _optionId) override public view returns (bool) {\r\n    if (_optionId >= NUM_OPTIONS) {\r\n      return false;\r\n    }\r\n\r\n    RadPanda radPanda = RadPanda(nftAddress);\r\n    uint256 pandaSupply = radPanda.totalSupply();\r\n\r\n    uint256 numItemsAllocated = 0;\r\n    if (_optionId == ONE_PANDA) {\r\n      numItemsAllocated = 1;\r\n    }\r\n\r\n    return pandaSupply < (MAX_SUPPLY - numItemsAllocated);\r\n  }\r\n\r\n  function tokenURI(uint256 _optionId) override external view returns (string memory) {\r\n    return string(abi.encodePacked(baseURI, Strings.toString(_optionId), \".json\"));\r\n  }\r\n\r\n  /**\r\n   * Hack to get things to work automatically on OpenSea.\r\n   * Use transferFrom so the frontend doesn't have to worry about different method names.\r\n   */\r\n  function transferFrom(\r\n    address _from,\r\n    address _to,\r\n    uint256 _tokenId\r\n  ) public {\r\n    mint(_tokenId, _to);\r\n  }\r\n\r\n  /**\r\n   * Hack to get things to work automatically on OpenSea.\r\n   * Use isApprovedForAll so the frontend doesn't have to worry about different method names.\r\n   */\r\n  function isApprovedForAll(address _owner, address _operator)\r\n    public\r\n    view\r\n    returns (bool)\r\n  {\r\n    if (owner() == _owner && _owner == _operator) {\r\n      return true;\r\n    }\r\n\r\n    ProxyRegistry proxyRegistry = ProxyRegistry(proxyRegistryAddress);\r\n    if (\r\n      owner() == _owner &&\r\n      address(proxyRegistry.proxies(_owner)) == _operator\r\n    ) {\r\n      return true;\r\n    }\r\n\r\n    return false;\r\n  }\r\n\r\n  /**\r\n   * Hack to get things to work automatically on OpenSea.\r\n   * Use isApprovedForAll so the frontend doesn't have to worry about different method names.\r\n   */\r\n  function ownerOf(uint256 _tokenId) public view returns (address _owner) {\r\n    return owner();\r\n  }\r\n}",
  "sourcePath": "C:/Users/Josh/Documents/Josh/GitHub/rad-pandas/blockchain/contracts/RadPandaFactory.sol",
  "compiler": {
    "name": "solc",
    "version": "0.8.6+commit.11564f7e.Emscripten.clang"
  },
  "schemaVersion": "3.3.3",
  "updatedAt": "2021-08-09T17:19:44.904Z",
  "devdoc": {
    "kind": "dev",
    "methods": {
      "canMint(uint256)": {
        "details": "Returns whether the option ID can be minted. Can return false if the developer wishes to restrict a total supply per option ID (or overall)."
      },
      "mint(uint256,address)": {
        "details": "Mints asset(s) in accordance to a specific address with a particular \"option\". This should be callable only by the contract owner or the owner's Wyvern Proxy (later universal login will solve this). Options should also be delineated 0 - (numOptions() - 1) for convenient indexing.",
        "params": {
          "_optionId": "the option id",
          "_toAddress": "address of the future owner of the asset(s)"
        }
      },
      "owner()": {
        "details": "Returns the address of the current owner."
      },
      "renounceOwnership()": {
        "details": "Leaves the contract without owner. It will not be possible to call `onlyOwner` functions anymore. Can only be called by the current owner. NOTE: Renouncing ownership will leave the contract without an owner, thereby removing any functionality that is only available to the owner."
      },
      "tokenURI(uint256)": {
        "details": "Returns a URL specifying some metadata about the option. This metadata can be of the same structure as the ERC721 metadata."
      },
      "transferOwnership(address)": {
        "details": "Transfers ownership of the contract to a new account (`newOwner`). Can only be called by the current owner."
      }
    },
    "stateVariables": {
      "MAX_SUPPLY": {
        "details": "Limit max token supply to ten thousand."
      }
    },
    "version": 1
  },
  "userdoc": {
    "kind": "user",
    "methods": {
      "isApprovedForAll(address,address)": {
        "notice": "Hack to get things to work automatically on OpenSea. Use isApprovedForAll so the frontend doesn't have to worry about different method names."
      },
      "name()": {
        "notice": "Returns the name of this factory."
      },
      "numOptions()": {
        "notice": "Number of options the factory supports."
      },
      "ownerOf(uint256)": {
        "notice": "Hack to get things to work automatically on OpenSea. Use isApprovedForAll so the frontend doesn't have to worry about different method names."
      },
      "supportsFactoryInterface()": {
        "notice": "Indicates that this is a factory contract. Ideally would use EIP 165 supportsInterface()"
      },
      "symbol()": {
        "notice": "Returns the symbol for this factory."
      },
      "transferFrom(address,address,uint256)": {
        "notice": "Hack to get things to work automatically on OpenSea. Use transferFrom so the frontend doesn't have to worry about different method names."
      }
    },
    "version": 1
  }
}