{
  "contractName": "RadPanda",
  "abi": [
    {
      "inputs": [
        {
          "internalType": "address",
          "name": "_proxyRegistryAddress",
          "type": "address"
        },
        {
          "internalType": "uint256",
          "name": "numTokens",
          "type": "uint256"
        },
        {
          "internalType": "address",
          "name": "initialMintAddress",
          "type": "address"
        }
      ],
      "stateMutability": "nonpayable",
      "type": "constructor"
    },
    {
      "anonymous": false,
      "inputs": [
        {
          "indexed": true,
          "internalType": "address",
          "name": "owner",
          "type": "address"
        },
        {
          "indexed": true,
          "internalType": "address",
          "name": "approved",
          "type": "address"
        },
        {
          "indexed": true,
          "internalType": "uint256",
          "name": "tokenId",
          "type": "uint256"
        }
      ],
      "name": "Approval",
      "type": "event"
    },
    {
      "anonymous": false,
      "inputs": [
        {
          "indexed": true,
          "internalType": "address",
          "name": "owner",
          "type": "address"
        },
        {
          "indexed": true,
          "internalType": "address",
          "name": "operator",
          "type": "address"
        },
        {
          "indexed": false,
          "internalType": "bool",
          "name": "approved",
          "type": "bool"
        }
      ],
      "name": "ApprovalForAll",
      "type": "event"
    },
    {
      "anonymous": false,
      "inputs": [
        {
          "indexed": false,
          "internalType": "address",
          "name": "userAddress",
          "type": "address"
        },
        {
          "indexed": false,
          "internalType": "address payable",
          "name": "relayerAddress",
          "type": "address"
        },
        {
          "indexed": false,
          "internalType": "bytes",
          "name": "functionSignature",
          "type": "bytes"
        }
      ],
      "name": "MetaTransactionExecuted",
      "type": "event"
    },
    {
      "anonymous": false,
      "inputs": [
        {
          "indexed": true,
          "internalType": "address",
          "name": "previousOwner",
          "type": "address"
        },
        {
          "indexed": true,
          "internalType": "address",
          "name": "newOwner",
          "type": "address"
        }
      ],
      "name": "OwnershipTransferred",
      "type": "event"
    },
    {
      "anonymous": false,
      "inputs": [
        {
          "indexed": true,
          "internalType": "address",
          "name": "from",
          "type": "address"
        },
        {
          "indexed": true,
          "internalType": "address",
          "name": "to",
          "type": "address"
        },
        {
          "indexed": true,
          "internalType": "uint256",
          "name": "tokenId",
          "type": "uint256"
        }
      ],
      "name": "Transfer",
      "type": "event"
    },
    {
      "inputs": [],
      "name": "ERC712_VERSION",
      "outputs": [
        {
          "internalType": "string",
          "name": "",
          "type": "string"
        }
      ],
      "stateMutability": "view",
      "type": "function",
      "constant": true
    },
    {
      "inputs": [
        {
          "internalType": "address",
          "name": "to",
          "type": "address"
        },
        {
          "internalType": "uint256",
          "name": "tokenId",
          "type": "uint256"
        }
      ],
      "name": "approve",
      "outputs": [],
      "stateMutability": "nonpayable",
      "type": "function"
    },
    {
      "inputs": [
        {
          "internalType": "address",
          "name": "owner",
          "type": "address"
        }
      ],
      "name": "balanceOf",
      "outputs": [
        {
          "internalType": "uint256",
          "name": "",
          "type": "uint256"
        }
      ],
      "stateMutability": "view",
      "type": "function",
      "constant": true
    },
    {
      "inputs": [
        {
          "internalType": "address",
          "name": "userAddress",
          "type": "address"
        },
        {
          "internalType": "bytes",
          "name": "functionSignature",
          "type": "bytes"
        },
        {
          "internalType": "bytes32",
          "name": "sigR",
          "type": "bytes32"
        },
        {
          "internalType": "bytes32",
          "name": "sigS",
          "type": "bytes32"
        },
        {
          "internalType": "uint8",
          "name": "sigV",
          "type": "uint8"
        }
      ],
      "name": "executeMetaTransaction",
      "outputs": [
        {
          "internalType": "bytes",
          "name": "",
          "type": "bytes"
        }
      ],
      "stateMutability": "payable",
      "type": "function",
      "payable": true
    },
    {
      "inputs": [
        {
          "internalType": "uint256",
          "name": "tokenId",
          "type": "uint256"
        }
      ],
      "name": "getApproved",
      "outputs": [
        {
          "internalType": "address",
          "name": "",
          "type": "address"
        }
      ],
      "stateMutability": "view",
      "type": "function",
      "constant": true
    },
    {
      "inputs": [],
      "name": "getChainId",
      "outputs": [
        {
          "internalType": "uint256",
          "name": "",
          "type": "uint256"
        }
      ],
      "stateMutability": "view",
      "type": "function",
      "constant": true
    },
    {
      "inputs": [],
      "name": "getDomainSeperator",
      "outputs": [
        {
          "internalType": "bytes32",
          "name": "",
          "type": "bytes32"
        }
      ],
      "stateMutability": "view",
      "type": "function",
      "constant": true
    },
    {
      "inputs": [
        {
          "internalType": "address",
          "name": "user",
          "type": "address"
        }
      ],
      "name": "getNonce",
      "outputs": [
        {
          "internalType": "uint256",
          "name": "nonce",
          "type": "uint256"
        }
      ],
      "stateMutability": "view",
      "type": "function",
      "constant": true
    },
    {
      "inputs": [
        {
          "internalType": "address",
          "name": "owner",
          "type": "address"
        },
        {
          "internalType": "address",
          "name": "operator",
          "type": "address"
        }
      ],
      "name": "isApprovedForAll",
      "outputs": [
        {
          "internalType": "bool",
          "name": "",
          "type": "bool"
        }
      ],
      "stateMutability": "view",
      "type": "function",
      "constant": true
    },
    {
      "inputs": [
        {
          "internalType": "address",
          "name": "_to",
          "type": "address"
        }
      ],
      "name": "mintTo",
      "outputs": [],
      "stateMutability": "nonpayable",
      "type": "function"
    },
    {
      "inputs": [],
      "name": "name",
      "outputs": [
        {
          "internalType": "string",
          "name": "",
          "type": "string"
        }
      ],
      "stateMutability": "view",
      "type": "function",
      "constant": true
    },
    {
      "inputs": [],
      "name": "owner",
      "outputs": [
        {
          "internalType": "address",
          "name": "",
          "type": "address"
        }
      ],
      "stateMutability": "view",
      "type": "function",
      "constant": true
    },
    {
      "inputs": [
        {
          "internalType": "uint256",
          "name": "tokenId",
          "type": "uint256"
        }
      ],
      "name": "ownerOf",
      "outputs": [
        {
          "internalType": "address",
          "name": "",
          "type": "address"
        }
      ],
      "stateMutability": "view",
      "type": "function",
      "constant": true
    },
    {
      "inputs": [],
      "name": "renounceOwnership",
      "outputs": [],
      "stateMutability": "nonpayable",
      "type": "function"
    },
    {
      "inputs": [
        {
          "internalType": "address",
          "name": "from",
          "type": "address"
        },
        {
          "internalType": "address",
          "name": "to",
          "type": "address"
        },
        {
          "internalType": "uint256",
          "name": "tokenId",
          "type": "uint256"
        }
      ],
      "name": "safeTransferFrom",
      "outputs": [],
      "stateMutability": "nonpayable",
      "type": "function"
    },
    {
      "inputs": [
        {
          "internalType": "address",
          "name": "from",
          "type": "address"
        },
        {
          "internalType": "address",
          "name": "to",
          "type": "address"
        },
        {
          "internalType": "uint256",
          "name": "tokenId",
          "type": "uint256"
        },
        {
          "internalType": "bytes",
          "name": "_data",
          "type": "bytes"
        }
      ],
      "name": "safeTransferFrom",
      "outputs": [],
      "stateMutability": "nonpayable",
      "type": "function"
    },
    {
      "inputs": [
        {
          "internalType": "address",
          "name": "operator",
          "type": "address"
        },
        {
          "internalType": "bool",
          "name": "approved",
          "type": "bool"
        }
      ],
      "name": "setApprovalForAll",
      "outputs": [],
      "stateMutability": "nonpayable",
      "type": "function"
    },
    {
      "inputs": [
        {
          "internalType": "bytes4",
          "name": "interfaceId",
          "type": "bytes4"
        }
      ],
      "name": "supportsInterface",
      "outputs": [
        {
          "internalType": "bool",
          "name": "",
          "type": "bool"
        }
      ],
      "stateMutability": "view",
      "type": "function",
      "constant": true
    },
    {
      "inputs": [],
      "name": "symbol",
      "outputs": [
        {
          "internalType": "string",
          "name": "",
          "type": "string"
        }
      ],
      "stateMutability": "view",
      "type": "function",
      "constant": true
    },
    {
      "inputs": [
        {
          "internalType": "uint256",
          "name": "index",
          "type": "uint256"
        }
      ],
      "name": "tokenByIndex",
      "outputs": [
        {
          "internalType": "uint256",
          "name": "",
          "type": "uint256"
        }
      ],
      "stateMutability": "view",
      "type": "function",
      "constant": true
    },
    {
      "inputs": [
        {
          "internalType": "address",
          "name": "owner",
          "type": "address"
        },
        {
          "internalType": "uint256",
          "name": "index",
          "type": "uint256"
        }
      ],
      "name": "tokenOfOwnerByIndex",
      "outputs": [
        {
          "internalType": "uint256",
          "name": "",
          "type": "uint256"
        }
      ],
      "stateMutability": "view",
      "type": "function",
      "constant": true
    },
    {
      "inputs": [
        {
          "internalType": "uint256",
          "name": "_tokenId",
          "type": "uint256"
        }
      ],
      "name": "tokenURI",
      "outputs": [
        {
          "internalType": "string",
          "name": "",
          "type": "string"
        }
      ],
      "stateMutability": "pure",
      "type": "function",
      "constant": true
    },
    {
      "inputs": [],
      "name": "totalSupply",
      "outputs": [
        {
          "internalType": "uint256",
          "name": "",
          "type": "uint256"
        }
      ],
      "stateMutability": "view",
      "type": "function",
      "constant": true
    },
    {
      "inputs": [
        {
          "internalType": "address",
          "name": "from",
          "type": "address"
        },
        {
          "internalType": "address",
          "name": "to",
          "type": "address"
        },
        {
          "internalType": "uint256",
          "name": "tokenId",
          "type": "uint256"
        }
      ],
      "name": "transferFrom",
      "outputs": [],
      "stateMutability": "nonpayable",
      "type": "function"
    },
    {
      "inputs": [
        {
          "internalType": "address",
          "name": "newOwner",
          "type": "address"
        }
      ],
      "name": "transferOwnership",
      "outputs": [],
      "stateMutability": "nonpayable",
      "type": "function"
    },
    {
      "inputs": [],
      "name": "baseTokenURI",
      "outputs": [
        {
          "internalType": "string",
          "name": "",
          "type": "string"
        }
      ],
      "stateMutability": "pure",
      "type": "function",
      "constant": true
    },
    {
      "inputs": [],
      "name": "contractURI",
      "outputs": [
        {
          "internalType": "string",
          "name": "",
          "type": "string"
        }
      ],
      "stateMutability": "pure",
      "type": "function",
      "constant": true
    }
  ],
  "bytecode": "0x60806040526000600a60006101000a81548160ff0219169083151502179055506000600f553480156200003157600080fd5b50604051620055dd380380620055dd833981810160405281019062000057919062000e45565b6040518060400160405280600881526020017f52616450616e64610000000000000000000000000000000000000000000000008152506040518060400160405280600581526020017f50414e44410000000000000000000000000000000000000000000000000000008152508482828160009080519060200190620000de92919062000d67565b508060019080519060200190620000f792919062000d67565b5050506200011a6200010e6200018a60201b60201c565b620001a660201b60201c565b80600e60006101000a81548173ffffffffffffffffffffffffffffffffffffffff021916908373ffffffffffffffffffffffffffffffffffffffff1602179055506200016c836200026c60201b60201c565b505050620001818282620002ee60201b60201c565b505050620013ea565b6000620001a16200032660201b620015c61760201c565b905090565b6000600d60009054906101000a900473ffffffffffffffffffffffffffffffffffffffff16905081600d60006101000a81548173ffffffffffffffffffffffffffffffffffffffff021916908373ffffffffffffffffffffffffffffffffffffffff1602179055508173ffffffffffffffffffffffffffffffffffffffff168173ffffffffffffffffffffffffffffffffffffffff167f8be0079c531659141344cd1fd0a4f28419497f9722a3daafe3b4186f6b6457e060405160405180910390a35050565b600a60009054906101000a900460ff1615620002bf576040517f08c379a0000000000000000000000000000000000000000000000000000000008152600401620002b6906200106b565b60405180910390fd5b620002d081620003d960201b60201c565b6001600a60006101000a81548160ff02191690831515021790555050565b60005b8281101562000321576200030b826200048860201b60201c565b80806200031890620011b4565b915050620002f1565b505050565b60003073ffffffffffffffffffffffffffffffffffffffff163373ffffffffffffffffffffffffffffffffffffffff161415620003d257600080368080601f016020809104026020016040519081016040528093929190818152602001838380828437600081840152601f19601f820116905080830192505050505050509050600080369050905073ffffffffffffffffffffffffffffffffffffffff818301511692505050620003d6565b3390505b90565b6040518060800160405280604f81526020016200558e604f91398051906020012081805190602001206040518060400160405280600181526020017f31000000000000000000000000000000000000000000000000000000000000008152508051906020012030620004506200055160201b60201c565b60001b6040516020016200046995949392919062000f86565b60405160208183030381529060405280519060200120600b8190555050565b620004986200018a60201b60201c565b73ffffffffffffffffffffffffffffffffffffffff16620004be6200055e60201b60201c565b73ffffffffffffffffffffffffffffffffffffffff161462000517576040517f08c379a00000000000000000000000000000000000000000000000000000000081526004016200050e9062001049565b60405180910390fd5b6000620005296200058860201b60201c565b90506200053d8282620005ac60201b60201c565b6200054d6200079260201b60201c565b5050565b6000804690508091505090565b6000600d60009054906101000a900473ffffffffffffffffffffffffffffffffffffffff16905090565b6000620005a76001600f54620007ae60201b620016771790919060201c565b905090565b600073ffffffffffffffffffffffffffffffffffffffff168273ffffffffffffffffffffffffffffffffffffffff1614156200061f576040517f08c379a0000000000000000000000000000000000000000000000000000000008152600401620006169062001027565b60405180910390fd5b6200063081620007c660201b60201c565b1562000673576040517f08c379a00000000000000000000000000000000000000000000000000000000081526004016200066a9062000fe3565b60405180910390fd5b62000687600083836200083260201b60201c565b6001600360008473ffffffffffffffffffffffffffffffffffffffff1673ffffffffffffffffffffffffffffffffffffffff1681526020019081526020016000206000828254620006d991906200109e565b92505081905550816002600083815260200190815260200160002060006101000a81548173ffffffffffffffffffffffffffffffffffffffff021916908373ffffffffffffffffffffffffffffffffffffffff160217905550808273ffffffffffffffffffffffffffffffffffffffff16600073ffffffffffffffffffffffffffffffffffffffff167fddf252ad1be2c89b69c2b068fc378daa952ba7f163c4a11628f55a4df523b3ef60405160405180910390a45050565b600f6000815480929190620007a790620011b4565b9190505550565b60008183620007be91906200109e565b905092915050565b60008073ffffffffffffffffffffffffffffffffffffffff166002600084815260200190815260200160002060009054906101000a900473ffffffffffffffffffffffffffffffffffffffff1673ffffffffffffffffffffffffffffffffffffffff1614159050919050565b6200084a8383836200097960201b6200168d1760201c565b600073ffffffffffffffffffffffffffffffffffffffff168373ffffffffffffffffffffffffffffffffffffffff161415620008975762000891816200097e60201b60201c565b620008df565b8173ffffffffffffffffffffffffffffffffffffffff168373ffffffffffffffffffffffffffffffffffffffff1614620008de57620008dd8382620009c760201b60201c565b5b5b600073ffffffffffffffffffffffffffffffffffffffff168273ffffffffffffffffffffffffffffffffffffffff1614156200092c57620009268162000b4460201b60201c565b62000974565b8273ffffffffffffffffffffffffffffffffffffffff168273ffffffffffffffffffffffffffffffffffffffff1614620009735762000972828262000c2060201b60201c565b5b5b505050565b505050565b6008805490506009600083815260200190815260200160002081905550600881908060018154018082558091505060019003906000526020600020016000909190919091505550565b60006001620009e18462000cac60201b62000eb81760201c565b620009ed9190620010fb565b905060006007600084815260200190815260200160002054905081811462000ad3576000600660008673ffffffffffffffffffffffffffffffffffffffff1673ffffffffffffffffffffffffffffffffffffffff168152602001908152602001600020600084815260200190815260200160002054905080600660008773ffffffffffffffffffffffffffffffffffffffff1673ffffffffffffffffffffffffffffffffffffffff168152602001908152602001600020600084815260200190815260200160002081905550816007600083815260200190815260200160002081905550505b6007600084815260200190815260200160002060009055600660008573ffffffffffffffffffffffffffffffffffffffff1673ffffffffffffffffffffffffffffffffffffffff16815260200190815260200160002060008381526020019081526020016000206000905550505050565b6000600160088054905062000b5a9190620010fb565b905060006009600084815260200190815260200160002054905060006008838154811062000b8d5762000b8c6200128f565b5b90600052602060002001549050806008838154811062000bb25762000bb16200128f565b5b90600052602060002001819055508160096000838152602001908152602001600020819055506009600085815260200190815260200160002060009055600880548062000c045762000c0362001260565b5b6001900381819060005260206000200160009055905550505050565b600062000c388362000cac60201b62000eb81760201c565b905081600660008573ffffffffffffffffffffffffffffffffffffffff1673ffffffffffffffffffffffffffffffffffffffff168152602001908152602001600020600083815260200190815260200160002081905550806007600084815260200190815260200160002081905550505050565b60008073ffffffffffffffffffffffffffffffffffffffff168273ffffffffffffffffffffffffffffffffffffffff16141562000d20576040517f08c379a000000000000000000000000000000000000000000000000000000000815260040162000d179062001005565b60405180910390fd5b600360008373ffffffffffffffffffffffffffffffffffffffff1673ffffffffffffffffffffffffffffffffffffffff168152602001908152602001600020549050919050565b82805462000d75906200117e565b90600052602060002090601f01602090048101928262000d99576000855562000de5565b82601f1062000db457805160ff191683800117855562000de5565b8280016001018555821562000de5579182015b8281111562000de457825182559160200191906001019062000dc7565b5b50905062000df4919062000df8565b5090565b5b8082111562000e1357600081600090555060010162000df9565b5090565b60008151905062000e2881620013b6565b92915050565b60008151905062000e3f81620013d0565b92915050565b60008060006060848603121562000e615762000e60620012be565b5b600062000e718682870162000e17565b935050602062000e848682870162000e2e565b925050604062000e978682870162000e17565b9150509250925092565b62000eac8162001136565b82525050565b62000ebd816200114a565b82525050565b600062000ed2601c836200108d565b915062000edf82620012c3565b602082019050919050565b600062000ef9602a836200108d565b915062000f0682620012ec565b604082019050919050565b600062000f206020836200108d565b915062000f2d826200133b565b602082019050919050565b600062000f476020836200108d565b915062000f548262001364565b602082019050919050565b600062000f6e600e836200108d565b915062000f7b826200138d565b602082019050919050565b600060a08201905062000f9d600083018862000eb2565b62000fac602083018762000eb2565b62000fbb604083018662000eb2565b62000fca606083018562000ea1565b62000fd9608083018462000eb2565b9695505050505050565b6000602082019050818103600083015262000ffe8162000ec3565b9050919050565b60006020820190508181036000830152620010208162000eea565b9050919050565b60006020820190508181036000830152620010428162000f11565b9050919050565b60006020820190508181036000830152620010648162000f38565b9050919050565b60006020820190508181036000830152620010868162000f5f565b9050919050565b600082825260208201905092915050565b6000620010ab8262001174565b9150620010b88362001174565b9250827fffffffffffffffffffffffffffffffffffffffffffffffffffffffffffffffff03821115620010f057620010ef62001202565b5b828201905092915050565b6000620011088262001174565b9150620011158362001174565b9250828210156200112b576200112a62001202565b5b828203905092915050565b6000620011438262001154565b9050919050565b6000819050919050565b600073ffffffffffffffffffffffffffffffffffffffff82169050919050565b6000819050919050565b600060028204905060018216806200119757607f821691505b60208210811415620011ae57620011ad62001231565b5b50919050565b6000620011c18262001174565b91507fffffffffffffffffffffffffffffffffffffffffffffffffffffffffffffffff821415620011f757620011f662001202565b5b600182019050919050565b7f4e487b7100000000000000000000000000000000000000000000000000000000600052601160045260246000fd5b7f4e487b7100000000000000000000000000000000000000000000000000000000600052602260045260246000fd5b7f4e487b7100000000000000000000000000000000000000000000000000000000600052603160045260246000fd5b7f4e487b7100000000000000000000000000000000000000000000000000000000600052603260045260246000fd5b600080fd5b7f4552433732313a20746f6b656e20616c7265616479206d696e74656400000000600082015250565b7f4552433732313a2062616c616e636520717565727920666f7220746865207a6560008201527f726f206164647265737300000000000000000000000000000000000000000000602082015250565b7f4552433732313a206d696e7420746f20746865207a65726f2061646472657373600082015250565b7f4f776e61626c653a2063616c6c6572206973206e6f7420746865206f776e6572600082015250565b7f616c726561647920696e69746564000000000000000000000000000000000000600082015250565b620013c18162001136565b8114620013cd57600080fd5b50565b620013db8162001174565b8114620013e757600080fd5b50565b61419480620013fa6000396000f3fe60806040526004361061019c5760003560e01c80634f6ccce7116100ec578063a22cb4651161008a578063d547cfb711610064578063d547cfb7146105f3578063e8a3d4851461061e578063e985e9c514610649578063f2fde38b146106865761019c565b8063a22cb46514610564578063b88d4fde1461058d578063c87b56dd146105b65761019c565b8063715018a6116100c6578063715018a6146104ce578063755edd17146104e55780638da5cb5b1461050e57806395d89b41146105395761019c565b80634f6ccce7146104175780636352211e1461045457806370a08231146104915761019c565b806318160ddd116101595780632d0335ab116101335780632d0335ab146103495780632f745c59146103865780633408e470146103c357806342842e0e146103ee5761019c565b806318160ddd146102ca57806320379ee5146102f557806323b872dd146103205761019c565b806301ffc9a7146101a157806306fdde03146101de578063081812fc14610209578063095ea7b3146102465780630c53c51c1461026f5780630f7e59701461029f575b600080fd5b3480156101ad57600080fd5b506101c860048036038101906101c39190612c48565b6106af565b6040516101d59190613276565b60405180910390f35b3480156101ea57600080fd5b506101f3610729565b6040516102009190613358565b60405180910390f35b34801561021557600080fd5b50610230600480360381019061022b9190612ccf565b6107bb565b60405161023d91906131d1565b60405180910390f35b34801561025257600080fd5b5061026d60048036038101906102689190612c08565b610840565b005b61028960048036038101906102849190612b71565b610958565b6040516102969190613336565b60405180910390f35b3480156102ab57600080fd5b506102b4610bca565b6040516102c19190613358565b60405180910390f35b3480156102d657600080fd5b506102df610c03565b6040516102ec91906135fa565b60405180910390f35b34801561030157600080fd5b5061030a610c10565b6040516103179190613291565b60405180910390f35b34801561032c57600080fd5b5061034760048036038101906103429190612a5b565b610c1a565b005b34801561035557600080fd5b50610370600480360381019061036b91906129ee565b610c7a565b60405161037d91906135fa565b60405180910390f35b34801561039257600080fd5b506103ad60048036038101906103a89190612c08565b610cc3565b6040516103ba91906135fa565b60405180910390f35b3480156103cf57600080fd5b506103d8610d68565b6040516103e591906135fa565b60405180910390f35b3480156103fa57600080fd5b5061041560048036038101906104109190612a5b565b610d75565b005b34801561042357600080fd5b5061043e60048036038101906104399190612ccf565b610d95565b60405161044b91906135fa565b60405180910390f35b34801561046057600080fd5b5061047b60048036038101906104769190612ccf565b610e06565b60405161048891906131d1565b60405180910390f35b34801561049d57600080fd5b506104b860048036038101906104b391906129ee565b610eb8565b6040516104c591906135fa565b60405180910390f35b3480156104da57600080fd5b506104e3610f70565b005b3480156104f157600080fd5b5061050c600480360381019061050791906129ee565b610ff8565b005b34801561051a57600080fd5b50610523611096565b60405161053091906131d1565b60405180910390f35b34801561054557600080fd5b5061054e6110c0565b60405161055b9190613358565b60405180910390f35b34801561057057600080fd5b5061058b60048036038101906105869190612b31565b611152565b005b34801561059957600080fd5b506105b460048036038101906105af9190612aae565b6112d3565b005b3480156105c257600080fd5b506105dd60048036038101906105d89190612ccf565b611335565b6040516105ea9190613358565b60405180910390f35b3480156105ff57600080fd5b5061060861136f565b6040516106159190613358565b60405180910390f35b34801561062a57600080fd5b5061063361138f565b6040516106409190613358565b60405180910390f35b34801561065557600080fd5b50610670600480360381019061066b9190612a1b565b6113cc565b60405161067d9190613276565b60405180910390f35b34801561069257600080fd5b506106ad60048036038101906106a891906129ee565b6114ce565b005b60007f780e9d63000000000000000000000000000000000000000000000000000000007bffffffffffffffffffffffffffffffffffffffffffffffffffffffff1916827bffffffffffffffffffffffffffffffffffffffffffffffffffffffff19161480610722575061072182611692565b5b9050919050565b60606000805461073890613865565b80601f016020809104026020016040519081016040528092919081815260200182805461076490613865565b80156107b15780601f10610786576101008083540402835291602001916107b1565b820191906000526020600020905b81548152906001019060200180831161079457829003601f168201915b5050505050905090565b60006107c682611774565b610805576040517f08c379a00000000000000000000000000000000000000000000000000000000081526004016107fc9061351a565b60405180910390fd5b6004600083815260200190815260200160002060009054906101000a900473ffffffffffffffffffffffffffffffffffffffff169050919050565b600061084b82610e06565b90508073ffffffffffffffffffffffffffffffffffffffff168373ffffffffffffffffffffffffffffffffffffffff1614156108bc576040517f08c379a00000000000000000000000000000000000000000000000000000000081526004016108b39061359a565b60405180910390fd5b8073ffffffffffffffffffffffffffffffffffffffff166108db6117e0565b73ffffffffffffffffffffffffffffffffffffffff16148061090a5750610909816109046117e0565b6113cc565b5b610949576040517f08c379a00000000000000000000000000000000000000000000000000000000081526004016109409061349a565b60405180910390fd5b61095383836117ef565b505050565b606060006040518060600160405280600c60008a73ffffffffffffffffffffffffffffffffffffffff1673ffffffffffffffffffffffffffffffffffffffff1681526020019081526020016000205481526020018873ffffffffffffffffffffffffffffffffffffffff1681526020018781525090506109db87828787876118a8565b610a1a576040517f08c379a0000000000000000000000000000000000000000000000000000000008152600401610a119061357a565b60405180910390fd5b610a6d6001600c60008a73ffffffffffffffffffffffffffffffffffffffff1673ffffffffffffffffffffffffffffffffffffffff1681526020019081526020016000205461167790919063ffffffff16565b600c60008973ffffffffffffffffffffffffffffffffffffffff1673ffffffffffffffffffffffffffffffffffffffff168152602001908152602001600020819055507f5845892132946850460bff5a0083f71031bc5bf9aadcd40f1de79423eac9b10b873388604051610ae3939291906131ec565b60405180910390a16000803073ffffffffffffffffffffffffffffffffffffffff16888a604051602001610b1892919061314e565b604051602081830303815290604052604051610b349190613137565b6000604051808303816000865af19150503d8060008114610b71576040519150601f19603f3d011682016040523d82523d6000602084013e610b76565b606091505b509150915081610bbb576040517f08c379a0000000000000000000000000000000000000000000000000000000008152600401610bb2906133da565b60405180910390fd5b80935050505095945050505050565b6040518060400160405280600181526020017f310000000000000000000000000000000000000000000000000000000000000081525081565b6000600880549050905090565b6000600b54905090565b610c2b610c256117e0565b826119b1565b610c6a576040517f08c379a0000000000000000000000000000000000000000000000000000000008152600401610c61906135ba565b60405180910390fd5b610c75838383611a8f565b505050565b6000600c60008373ffffffffffffffffffffffffffffffffffffffff1673ffffffffffffffffffffffffffffffffffffffff168152602001908152602001600020549050919050565b6000610cce83610eb8565b8210610d0f576040517f08c379a0000000000000000000000000000000000000000000000000000000008152600401610d069061337a565b60405180910390fd5b600660008473ffffffffffffffffffffffffffffffffffffffff1673ffffffffffffffffffffffffffffffffffffffff168152602001908152602001600020600083815260200190815260200160002054905092915050565b6000804690508091505090565b610d90838383604051806020016040528060008152506112d3565b505050565b6000610d9f610c03565b8210610de0576040517f08c379a0000000000000000000000000000000000000000000000000000000008152600401610dd7906135da565b60405180910390fd5b60088281548110610df457610df3613a2c565b5b90600052602060002001549050919050565b6000806002600084815260200190815260200160002060009054906101000a900473ffffffffffffffffffffffffffffffffffffffff169050600073ffffffffffffffffffffffffffffffffffffffff168173ffffffffffffffffffffffffffffffffffffffff161415610eaf576040517f08c379a0000000000000000000000000000000000000000000000000000000008152600401610ea6906134da565b60405180910390fd5b80915050919050565b60008073ffffffffffffffffffffffffffffffffffffffff168273ffffffffffffffffffffffffffffffffffffffff161415610f29576040517f08c379a0000000000000000000000000000000000000000000000000000000008152600401610f20906134ba565b60405180910390fd5b600360008373ffffffffffffffffffffffffffffffffffffffff1673ffffffffffffffffffffffffffffffffffffffff168152602001908152602001600020549050919050565b610f786117e0565b73ffffffffffffffffffffffffffffffffffffffff16610f96611096565b73ffffffffffffffffffffffffffffffffffffffff1614610fec576040517f08c379a0000000000000000000000000000000000000000000000000000000008152600401610fe39061353a565b60405180910390fd5b610ff66000611ceb565b565b6110006117e0565b73ffffffffffffffffffffffffffffffffffffffff1661101e611096565b73ffffffffffffffffffffffffffffffffffffffff1614611074576040517f08c379a000000000000000000000000000000000000000000000000000000000815260040161106b9061353a565b60405180910390fd5b600061107e611db1565b905061108a8282611dce565b611092611f9c565b5050565b6000600d60009054906101000a900473ffffffffffffffffffffffffffffffffffffffff16905090565b6060600180546110cf90613865565b80601f01602080910402602001604051908101604052809291908181526020018280546110fb90613865565b80156111485780601f1061111d57610100808354040283529160200191611148565b820191906000526020600020905b81548152906001019060200180831161112b57829003601f168201915b5050505050905090565b61115a6117e0565b73ffffffffffffffffffffffffffffffffffffffff168273ffffffffffffffffffffffffffffffffffffffff1614156111c8576040517f08c379a00000000000000000000000000000000000000000000000000000000081526004016111bf9061343a565b60405180910390fd5b80600560006111d56117e0565b73ffffffffffffffffffffffffffffffffffffffff1673ffffffffffffffffffffffffffffffffffffffff16815260200190815260200160002060008473ffffffffffffffffffffffffffffffffffffffff1673ffffffffffffffffffffffffffffffffffffffff16815260200190815260200160002060006101000a81548160ff0219169083151502179055508173ffffffffffffffffffffffffffffffffffffffff166112826117e0565b73ffffffffffffffffffffffffffffffffffffffff167f17307eab39ab6107e8899845ad3d59bd9653f200f220920489ca2b5937696c31836040516112c79190613276565b60405180910390a35050565b6112e46112de6117e0565b836119b1565b611323576040517f08c379a000000000000000000000000000000000000000000000000000000000815260040161131a906135ba565b60405180910390fd5b61132f84848484611fb6565b50505050565b606061133f61136f565b61134883612012565b604051602001611359929190613176565b6040516020818303038152906040529050919050565b60606040518060600160405280602781526020016140f560279139905090565b60606040518060400160405280601b81526020017f68747470733a2f2f7777772e7261646b696e67646f6d2e6f72672f0000000000815250905090565b600080600e60009054906101000a900473ffffffffffffffffffffffffffffffffffffffff1690508273ffffffffffffffffffffffffffffffffffffffff168173ffffffffffffffffffffffffffffffffffffffff1663c4552791866040518263ffffffff1660e01b815260040161144491906131d1565b60206040518083038186803b15801561145c57600080fd5b505afa158015611470573d6000803e3d6000fd5b505050506040513d601f19601f820116820180604052508101906114949190612ca2565b73ffffffffffffffffffffffffffffffffffffffff1614156114ba5760019150506114c8565b6114c48484612173565b9150505b92915050565b6114d66117e0565b73ffffffffffffffffffffffffffffffffffffffff166114f4611096565b73ffffffffffffffffffffffffffffffffffffffff161461154a576040517f08c379a00000000000000000000000000000000000000000000000000000000081526004016115419061353a565b60405180910390fd5b600073ffffffffffffffffffffffffffffffffffffffff168173ffffffffffffffffffffffffffffffffffffffff1614156115ba576040517f08c379a00000000000000000000000000000000000000000000000000000000081526004016115b1906133ba565b60405180910390fd5b6115c381611ceb565b50565b60003073ffffffffffffffffffffffffffffffffffffffff163373ffffffffffffffffffffffffffffffffffffffff16141561167057600080368080601f016020809104026020016040519081016040528093929190818152602001838380828437600081840152601f19601f820116905080830192505050505050509050600080369050905073ffffffffffffffffffffffffffffffffffffffff818301511692505050611674565b3390505b90565b6000818361168591906136b9565b905092915050565b505050565b60007f80ac58cd000000000000000000000000000000000000000000000000000000007bffffffffffffffffffffffffffffffffffffffffffffffffffffffff1916827bffffffffffffffffffffffffffffffffffffffffffffffffffffffff1916148061175d57507f5b5e139f000000000000000000000000000000000000000000000000000000007bffffffffffffffffffffffffffffffffffffffffffffffffffffffff1916827bffffffffffffffffffffffffffffffffffffffffffffffffffffffff1916145b8061176d575061176c82612207565b5b9050919050565b60008073ffffffffffffffffffffffffffffffffffffffff166002600084815260200190815260200160002060009054906101000a900473ffffffffffffffffffffffffffffffffffffffff1673ffffffffffffffffffffffffffffffffffffffff1614159050919050565b60006117ea6115c6565b905090565b816004600083815260200190815260200160002060006101000a81548173ffffffffffffffffffffffffffffffffffffffff021916908373ffffffffffffffffffffffffffffffffffffffff160217905550808273ffffffffffffffffffffffffffffffffffffffff1661186283610e06565b73ffffffffffffffffffffffffffffffffffffffff167f8c5be1e5ebec7d5bd14f71427d1e84f3dd0314c0f7b2291e5b200ac8c7c3b92560405160405180910390a45050565b60008073ffffffffffffffffffffffffffffffffffffffff168673ffffffffffffffffffffffffffffffffffffffff161415611919576040517f08c379a00000000000000000000000000000000000000000000000000000000081526004016119109061347a565b60405180910390fd5b600161192c61192787612271565b6122d9565b8386866040516000815260200160405260405161194c94939291906132f1565b6020604051602081039080840390855afa15801561196e573d6000803e3d6000fd5b5050506020604051035173ffffffffffffffffffffffffffffffffffffffff168673ffffffffffffffffffffffffffffffffffffffff1614905095945050505050565b60006119bc82611774565b6119fb576040517f08c379a00000000000000000000000000000000000000000000000000000000081526004016119f29061345a565b60405180910390fd5b6000611a0683610e06565b90508073ffffffffffffffffffffffffffffffffffffffff168473ffffffffffffffffffffffffffffffffffffffff161480611a7557508373ffffffffffffffffffffffffffffffffffffffff16611a5d846107bb565b73ffffffffffffffffffffffffffffffffffffffff16145b80611a865750611a8581856113cc565b5b91505092915050565b8273ffffffffffffffffffffffffffffffffffffffff16611aaf82610e06565b73ffffffffffffffffffffffffffffffffffffffff1614611b05576040517f08c379a0000000000000000000000000000000000000000000000000000000008152600401611afc9061355a565b60405180910390fd5b600073ffffffffffffffffffffffffffffffffffffffff168273ffffffffffffffffffffffffffffffffffffffff161415611b75576040517f08c379a0000000000000000000000000000000000000000000000000000000008152600401611b6c9061341a565b60405180910390fd5b611b80838383612312565b611b8b6000826117ef565b6001600360008573ffffffffffffffffffffffffffffffffffffffff1673ffffffffffffffffffffffffffffffffffffffff1681526020019081526020016000206000828254611bdb9190613740565b925050819055506001600360008473ffffffffffffffffffffffffffffffffffffffff1673ffffffffffffffffffffffffffffffffffffffff1681526020019081526020016000206000828254611c3291906136b9565b92505081905550816002600083815260200190815260200160002060006101000a81548173ffffffffffffffffffffffffffffffffffffffff021916908373ffffffffffffffffffffffffffffffffffffffff160217905550808273ffffffffffffffffffffffffffffffffffffffff168473ffffffffffffffffffffffffffffffffffffffff167fddf252ad1be2c89b69c2b068fc378daa952ba7f163c4a11628f55a4df523b3ef60405160405180910390a4505050565b6000600d60009054906101000a900473ffffffffffffffffffffffffffffffffffffffff16905081600d60006101000a81548173ffffffffffffffffffffffffffffffffffffffff021916908373ffffffffffffffffffffffffffffffffffffffff1602179055508173ffffffffffffffffffffffffffffffffffffffff168173ffffffffffffffffffffffffffffffffffffffff167f8be0079c531659141344cd1fd0a4f28419497f9722a3daafe3b4186f6b6457e060405160405180910390a35050565b6000611dc96001600f5461167790919063ffffffff16565b905090565b600073ffffffffffffffffffffffffffffffffffffffff168273ffffffffffffffffffffffffffffffffffffffff161415611e3e576040517f08c379a0000000000000000000000000000000000000000000000000000000008152600401611e35906134fa565b60405180910390fd5b611e4781611774565b15611e87576040517f08c379a0000000000000000000000000000000000000000000000000000000008152600401611e7e906133fa565b60405180910390fd5b611e9360008383612312565b6001600360008473ffffffffffffffffffffffffffffffffffffffff1673ffffffffffffffffffffffffffffffffffffffff1681526020019081526020016000206000828254611ee391906136b9565b92505081905550816002600083815260200190815260200160002060006101000a81548173ffffffffffffffffffffffffffffffffffffffff021916908373ffffffffffffffffffffffffffffffffffffffff160217905550808273ffffffffffffffffffffffffffffffffffffffff16600073ffffffffffffffffffffffffffffffffffffffff167fddf252ad1be2c89b69c2b068fc378daa952ba7f163c4a11628f55a4df523b3ef60405160405180910390a45050565b600f6000815480929190611faf906138c8565b9190505550565b611fc1848484611a8f565b611fcd84848484612426565b61200c576040517f08c379a00000000000000000000000000000000000000000000000000000000081526004016120039061339a565b60405180910390fd5b50505050565b6060600082141561205a576040518060400160405280600181526020017f3000000000000000000000000000000000000000000000000000000000000000815250905061216e565b600082905060005b6000821461208c578080612075906138c8565b915050600a82612085919061370f565b9150612062565b60008167ffffffffffffffff8111156120a8576120a7613a5b565b5b6040519080825280601f01601f1916602001820160405280156120da5781602001600182028036833780820191505090505b5090505b60008514612167576001826120f39190613740565b9150600a85612102919061393f565b603061210e91906136b9565b60f81b81838151811061212457612123613a2c565b5b60200101907effffffffffffffffffffffffffffffffffffffffffffffffffffffffffffff1916908160001a905350600a85612160919061370f565b94506120de565b8093505050505b919050565b6000600560008473ffffffffffffffffffffffffffffffffffffffff1673ffffffffffffffffffffffffffffffffffffffff16815260200190815260200160002060008373ffffffffffffffffffffffffffffffffffffffff1673ffffffffffffffffffffffffffffffffffffffff16815260200190815260200160002060009054906101000a900460ff16905092915050565b60007f01ffc9a7000000000000000000000000000000000000000000000000000000007bffffffffffffffffffffffffffffffffffffffffffffffffffffffff1916827bffffffffffffffffffffffffffffffffffffffffffffffffffffffff1916149050919050565b600060405180608001604052806043815260200161411c6043913980519060200120826000015183602001518460400151805190602001206040516020016122bc94939291906132ac565b604051602081830303815290604052805190602001209050919050565b60006122e3610c10565b826040516020016122f592919061319a565b604051602081830303815290604052805190602001209050919050565b61231d83838361168d565b600073ffffffffffffffffffffffffffffffffffffffff168373ffffffffffffffffffffffffffffffffffffffff1614156123605761235b816125bd565b61239f565b8173ffffffffffffffffffffffffffffffffffffffff168373ffffffffffffffffffffffffffffffffffffffff161461239e5761239d8382612606565b5b5b600073ffffffffffffffffffffffffffffffffffffffff168273ffffffffffffffffffffffffffffffffffffffff1614156123e2576123dd81612773565b612421565b8273ffffffffffffffffffffffffffffffffffffffff168273ffffffffffffffffffffffffffffffffffffffff16146124205761241f8282612844565b5b5b505050565b60006124478473ffffffffffffffffffffffffffffffffffffffff166128c3565b156125b0578373ffffffffffffffffffffffffffffffffffffffff1663150b7a026124706117e0565b8786866040518563ffffffff1660e01b8152600401612492949392919061322a565b602060405180830381600087803b1580156124ac57600080fd5b505af19250505080156124dd57506040513d601f19601f820116820180604052508101906124da9190612c75565b60015b612560573d806000811461250d576040519150601f19603f3d011682016040523d82523d6000602084013e612512565b606091505b50600081511415612558576040517f08c379a000000000000000000000000000000000000000000000000000000000815260040161254f9061339a565b60405180910390fd5b805181602001fd5b63150b7a0260e01b7bffffffffffffffffffffffffffffffffffffffffffffffffffffffff1916817bffffffffffffffffffffffffffffffffffffffffffffffffffffffff1916149150506125b5565b600190505b949350505050565b6008805490506009600083815260200190815260200160002081905550600881908060018154018082558091505060019003906000526020600020016000909190919091505550565b6000600161261384610eb8565b61261d9190613740565b9050600060076000848152602001908152602001600020549050818114612702576000600660008673ffffffffffffffffffffffffffffffffffffffff1673ffffffffffffffffffffffffffffffffffffffff168152602001908152602001600020600084815260200190815260200160002054905080600660008773ffffffffffffffffffffffffffffffffffffffff1673ffffffffffffffffffffffffffffffffffffffff168152602001908152602001600020600084815260200190815260200160002081905550816007600083815260200190815260200160002081905550505b6007600084815260200190815260200160002060009055600660008573ffffffffffffffffffffffffffffffffffffffff1673ffffffffffffffffffffffffffffffffffffffff16815260200190815260200160002060008381526020019081526020016000206000905550505050565b600060016008805490506127879190613740565b90506000600960008481526020019081526020016000205490506000600883815481106127b7576127b6613a2c565b5b9060005260206000200154905080600883815481106127d9576127d8613a2c565b5b906000526020600020018190555081600960008381526020019081526020016000208190555060096000858152602001908152602001600020600090556008805480612828576128276139fd565b5b6001900381819060005260206000200160009055905550505050565b600061284f83610eb8565b905081600660008573ffffffffffffffffffffffffffffffffffffffff1673ffffffffffffffffffffffffffffffffffffffff168152602001908152602001600020600083815260200190815260200160002081905550806007600084815260200190815260200160002081905550505050565b600080823b905060008111915050919050565b60006128e96128e48461363a565b613615565b90508281526020810184848401111561290557612904613a8f565b5b612910848285613823565b509392505050565b60008135905061292781614053565b92915050565b60008135905061293c8161406a565b92915050565b60008135905061295181614081565b92915050565b60008135905061296681614098565b92915050565b60008151905061297b81614098565b92915050565b600082601f83011261299657612995613a8a565b5b81356129a68482602086016128d6565b91505092915050565b6000815190506129be816140af565b92915050565b6000813590506129d3816140c6565b92915050565b6000813590506129e8816140dd565b92915050565b600060208284031215612a0457612a03613a99565b5b6000612a1284828501612918565b91505092915050565b60008060408385031215612a3257612a31613a99565b5b6000612a4085828601612918565b9250506020612a5185828601612918565b9150509250929050565b600080600060608486031215612a7457612a73613a99565b5b6000612a8286828701612918565b9350506020612a9386828701612918565b9250506040612aa4868287016129c4565b9150509250925092565b60008060008060808587031215612ac857612ac7613a99565b5b6000612ad687828801612918565b9450506020612ae787828801612918565b9350506040612af8878288016129c4565b925050606085013567ffffffffffffffff811115612b1957612b18613a94565b5b612b2587828801612981565b91505092959194509250565b60008060408385031215612b4857612b47613a99565b5b6000612b5685828601612918565b9250506020612b678582860161292d565b9150509250929050565b600080600080600060a08688031215612b8d57612b8c613a99565b5b6000612b9b88828901612918565b955050602086013567ffffffffffffffff811115612bbc57612bbb613a94565b5b612bc888828901612981565b9450506040612bd988828901612942565b9350506060612bea88828901612942565b9250506080612bfb888289016129d9565b9150509295509295909350565b60008060408385031215612c1f57612c1e613a99565b5b6000612c2d85828601612918565b9250506020612c3e858286016129c4565b9150509250929050565b600060208284031215612c5e57612c5d613a99565b5b6000612c6c84828501612957565b91505092915050565b600060208284031215612c8b57612c8a613a99565b5b6000612c998482850161296c565b91505092915050565b600060208284031215612cb857612cb7613a99565b5b6000612cc6848285016129af565b91505092915050565b600060208284031215612ce557612ce4613a99565b5b6000612cf3848285016129c4565b91505092915050565b612d0581613786565b82525050565b612d1481613774565b82525050565b612d2b612d2682613774565b613911565b82525050565b612d3a81613798565b82525050565b612d49816137a4565b82525050565b612d60612d5b826137a4565b613923565b82525050565b6000612d718261366b565b612d7b8185613681565b9350612d8b818560208601613832565b612d9481613a9e565b840191505092915050565b6000612daa8261366b565b612db48185613692565b9350612dc4818560208601613832565b80840191505092915050565b6000612ddb82613676565b612de5818561369d565b9350612df5818560208601613832565b612dfe81613a9e565b840191505092915050565b6000612e1482613676565b612e1e81856136ae565b9350612e2e818560208601613832565b80840191505092915050565b6000612e47602b8361369d565b9150612e5282613abc565b604082019050919050565b6000612e6a60328361369d565b9150612e7582613b0b565b604082019050919050565b6000612e8d60268361369d565b9150612e9882613b5a565b604082019050919050565b6000612eb0601c8361369d565b9150612ebb82613ba9565b602082019050919050565b6000612ed3601c8361369d565b9150612ede82613bd2565b602082019050919050565b6000612ef66002836136ae565b9150612f0182613bfb565b600282019050919050565b6000612f1960248361369d565b9150612f2482613c24565b604082019050919050565b6000612f3c60198361369d565b9150612f4782613c73565b602082019050919050565b6000612f5f602c8361369d565b9150612f6a82613c9c565b604082019050919050565b6000612f8260258361369d565b9150612f8d82613ceb565b604082019050919050565b6000612fa560388361369d565b9150612fb082613d3a565b604082019050919050565b6000612fc8602a8361369d565b9150612fd382613d89565b604082019050919050565b6000612feb60298361369d565b9150612ff682613dd8565b604082019050919050565b600061300e60208361369d565b915061301982613e27565b602082019050919050565b6000613031602c8361369d565b915061303c82613e50565b604082019050919050565b600061305460208361369d565b915061305f82613e9f565b602082019050919050565b600061307760298361369d565b915061308282613ec8565b604082019050919050565b600061309a60218361369d565b91506130a582613f17565b604082019050919050565b60006130bd60218361369d565b91506130c882613f66565b604082019050919050565b60006130e060318361369d565b91506130eb82613fb5565b604082019050919050565b6000613103602c8361369d565b915061310e82614004565b604082019050919050565b6131228161380c565b82525050565b61313181613816565b82525050565b60006131438284612d9f565b915081905092915050565b600061315a8285612d9f565b91506131668284612d1a565b6014820191508190509392505050565b60006131828285612e09565b915061318e8284612e09565b91508190509392505050565b60006131a582612ee9565b91506131b18285612d4f565b6020820191506131c18284612d4f565b6020820191508190509392505050565b60006020820190506131e66000830184612d0b565b92915050565b60006060820190506132016000830186612d0b565b61320e6020830185612cfc565b81810360408301526132208184612d66565b9050949350505050565b600060808201905061323f6000830187612d0b565b61324c6020830186612d0b565b6132596040830185613119565b818103606083015261326b8184612d66565b905095945050505050565b600060208201905061328b6000830184612d31565b92915050565b60006020820190506132a66000830184612d40565b92915050565b60006080820190506132c16000830187612d40565b6132ce6020830186613119565b6132db6040830185612d0b565b6132e86060830184612d40565b95945050505050565b60006080820190506133066000830187612d40565b6133136020830186613128565b6133206040830185612d40565b61332d6060830184612d40565b95945050505050565b600060208201905081810360008301526133508184612d66565b905092915050565b600060208201905081810360008301526133728184612dd0565b905092915050565b6000602082019050818103600083015261339381612e3a565b9050919050565b600060208201905081810360008301526133b381612e5d565b9050919050565b600060208201905081810360008301526133d381612e80565b9050919050565b600060208201905081810360008301526133f381612ea3565b9050919050565b6000602082019050818103600083015261341381612ec6565b9050919050565b6000602082019050818103600083015261343381612f0c565b9050919050565b6000602082019050818103600083015261345381612f2f565b9050919050565b6000602082019050818103600083015261347381612f52565b9050919050565b6000602082019050818103600083015261349381612f75565b9050919050565b600060208201905081810360008301526134b381612f98565b9050919050565b600060208201905081810360008301526134d381612fbb565b9050919050565b600060208201905081810360008301526134f381612fde565b9050919050565b6000602082019050818103600083015261351381613001565b9050919050565b6000602082019050818103600083015261353381613024565b9050919050565b6000602082019050818103600083015261355381613047565b9050919050565b600060208201905081810360008301526135738161306a565b9050919050565b600060208201905081810360008301526135938161308d565b9050919050565b600060208201905081810360008301526135b3816130b0565b9050919050565b600060208201905081810360008301526135d3816130d3565b9050919050565b600060208201905081810360008301526135f3816130f6565b9050919050565b600060208201905061360f6000830184613119565b92915050565b600061361f613630565b905061362b8282613897565b919050565b6000604051905090565b600067ffffffffffffffff82111561365557613654613a5b565b5b61365e82613a9e565b9050602081019050919050565b600081519050919050565b600081519050919050565b600082825260208201905092915050565b600081905092915050565b600082825260208201905092915050565b600081905092915050565b60006136c48261380c565b91506136cf8361380c565b9250827fffffffffffffffffffffffffffffffffffffffffffffffffffffffffffffffff0382111561370457613703613970565b5b828201905092915050565b600061371a8261380c565b91506137258361380c565b9250826137355761373461399f565b5b828204905092915050565b600061374b8261380c565b91506137568361380c565b92508282101561376957613768613970565b5b828203905092915050565b600061377f826137ec565b9050919050565b6000613791826137ec565b9050919050565b60008115159050919050565b6000819050919050565b60007fffffffff0000000000000000000000000000000000000000000000000000000082169050919050565b60006137e582613774565b9050919050565b600073ffffffffffffffffffffffffffffffffffffffff82169050919050565b6000819050919050565b600060ff82169050919050565b82818337600083830152505050565b60005b83811015613850578082015181840152602081019050613835565b8381111561385f576000848401525b50505050565b6000600282049050600182168061387d57607f821691505b60208210811415613891576138906139ce565b5b50919050565b6138a082613a9e565b810181811067ffffffffffffffff821117156138bf576138be613a5b565b5b80604052505050565b60006138d38261380c565b91507fffffffffffffffffffffffffffffffffffffffffffffffffffffffffffffffff82141561390657613905613970565b5b600182019050919050565b600061391c8261392d565b9050919050565b6000819050919050565b600061393882613aaf565b9050919050565b600061394a8261380c565b91506139558361380c565b9250826139655761396461399f565b5b828206905092915050565b7f4e487b7100000000000000000000000000000000000000000000000000000000600052601160045260246000fd5b7f4e487b7100000000000000000000000000000000000000000000000000000000600052601260045260246000fd5b7f4e487b7100000000000000000000000000000000000000000000000000000000600052602260045260246000fd5b7f4e487b7100000000000000000000000000000000000000000000000000000000600052603160045260246000fd5b7f4e487b7100000000000000000000000000000000000000000000000000000000600052603260045260246000fd5b7f4e487b7100000000000000000000000000000000000000000000000000000000600052604160045260246000fd5b600080fd5b600080fd5b600080fd5b600080fd5b6000601f19601f8301169050919050565b60008160601b9050919050565b7f455243373231456e756d657261626c653a206f776e657220696e646578206f7560008201527f74206f6620626f756e6473000000000000000000000000000000000000000000602082015250565b7f4552433732313a207472616e7366657220746f206e6f6e20455243373231526560008201527f63656976657220696d706c656d656e7465720000000000000000000000000000602082015250565b7f4f776e61626c653a206e6577206f776e657220697320746865207a65726f206160008201527f6464726573730000000000000000000000000000000000000000000000000000602082015250565b7f46756e6374696f6e2063616c6c206e6f74207375636365737366756c00000000600082015250565b7f4552433732313a20746f6b656e20616c7265616479206d696e74656400000000600082015250565b7f1901000000000000000000000000000000000000000000000000000000000000600082015250565b7f4552433732313a207472616e7366657220746f20746865207a65726f2061646460008201527f7265737300000000000000000000000000000000000000000000000000000000602082015250565b7f4552433732313a20617070726f766520746f2063616c6c657200000000000000600082015250565b7f4552433732313a206f70657261746f7220717565727920666f72206e6f6e657860008201527f697374656e7420746f6b656e0000000000000000000000000000000000000000602082015250565b7f4e61746976654d6574615472616e73616374696f6e3a20494e56414c49445f5360008201527f49474e4552000000000000000000000000000000000000000000000000000000602082015250565b7f4552433732313a20617070726f76652063616c6c6572206973206e6f74206f7760008201527f6e6572206e6f7220617070726f76656420666f7220616c6c0000000000000000602082015250565b7f4552433732313a2062616c616e636520717565727920666f7220746865207a6560008201527f726f206164647265737300000000000000000000000000000000000000000000602082015250565b7f4552433732313a206f776e657220717565727920666f72206e6f6e657869737460008201527f656e7420746f6b656e0000000000000000000000000000000000000000000000602082015250565b7f4552433732313a206d696e7420746f20746865207a65726f2061646472657373600082015250565b7f4552433732313a20617070726f76656420717565727920666f72206e6f6e657860008201527f697374656e7420746f6b656e0000000000000000000000000000000000000000602082015250565b7f4f776e61626c653a2063616c6c6572206973206e6f7420746865206f776e6572600082015250565b7f4552433732313a207472616e73666572206f6620746f6b656e2074686174206960008201527f73206e6f74206f776e0000000000000000000000000000000000000000000000602082015250565b7f5369676e657220616e64207369676e617475726520646f206e6f74206d61746360008201527f6800000000000000000000000000000000000000000000000000000000000000602082015250565b7f4552433732313a20617070726f76616c20746f2063757272656e74206f776e6560008201527f7200000000000000000000000000000000000000000000000000000000000000602082015250565b7f4552433732313a207472616e736665722063616c6c6572206973206e6f74206f60008201527f776e6572206e6f7220617070726f766564000000000000000000000000000000602082015250565b7f455243373231456e756d657261626c653a20676c6f62616c20696e646578206f60008201527f7574206f6620626f756e64730000000000000000000000000000000000000000602082015250565b61405c81613774565b811461406757600080fd5b50565b61407381613798565b811461407e57600080fd5b50565b61408a816137a4565b811461409557600080fd5b50565b6140a1816137ae565b81146140ac57600080fd5b50565b6140b8816137da565b81146140c357600080fd5b50565b6140cf8161380c565b81146140da57600080fd5b50565b6140e681613816565b81146140f157600080fd5b5056fe68747470733a2f2f616e696d616c2d6b696e67646f6d2e7261642e6c6976652f70616e6461732f4d6574615472616e73616374696f6e2875696e74323536206e6f6e63652c616464726573732066726f6d2c62797465732066756e6374696f6e5369676e617475726529a26469706673582212205508c7f218e5b018fdecf2a8615cbb35b6bd8e735e7b82c0dec223e3f6e8c46c64736f6c63430008060033454950373132446f6d61696e28737472696e67206e616d652c737472696e672076657273696f6e2c6164647265737320766572696679696e67436f6e74726163742c627974657333322073616c7429",
  "immutableReferences": {},
  "source": "// SPDX-License-Identifier: MIT\r\npragma solidity ^0.8.0;\r\n\r\nimport \"./ERC721Tradable.sol\";\r\n\r\n/// @title RadPanda ERC-721 token contract.\r\ncontract RadPanda is ERC721Tradable {\r\n  constructor(address _proxyRegistryAddress, uint256 numTokens, address initialMintAddress)\r\n    ERC721Tradable(\"RadPanda\", \"PANDA\", _proxyRegistryAddress)\r\n  {\r\n    _initialMint(numTokens, initialMintAddress);\r\n  }\r\n\r\n  function baseTokenURI() override public pure returns (string memory) {\r\n    return \"https://animal-kingdom.rad.live/pandas/\";\r\n  }\r\n\r\n  function contractURI() public pure returns (string memory) {\r\n    return \"https://www.radkingdom.org/\";\r\n  }\r\n\r\n  function _initialMint(uint256 _numTokens, address _initialMintAddress) private {\r\n    for (uint256 i=0; i<_numTokens; i++) {\r\n      mintTo(_initialMintAddress);\r\n    }\r\n  }\r\n}",
  "sourcePath": "C:/Users/Josh/Documents/Josh/GitHub/rad-pandas/blockchain/contracts/RadPanda.sol",
  "compiler": {
    "name": "solc",
    "version": "0.8.6+commit.11564f7e.Emscripten.clang"
  },
  "schemaVersion": "3.3.3",
  "updatedAt": "2021-08-08T01:11:41.510Z",
  "networkType": "ethereum",
  "devdoc": {
    "kind": "dev",
    "methods": {
      "approve(address,uint256)": {
        "details": "See {IERC721-approve}."
      },
      "balanceOf(address)": {
        "details": "See {IERC721-balanceOf}."
      },
      "getApproved(uint256)": {
        "details": "See {IERC721-getApproved}."
      },
      "mintTo(address)": {
        "details": "Mints a token to an address with a tokenURI.",
        "params": {
          "_to": "address of the future owner of the token"
        }
      },
      "name()": {
        "details": "See {IERC721Metadata-name}."
      },
      "owner()": {
        "details": "Returns the address of the current owner."
      },
      "ownerOf(uint256)": {
        "details": "See {IERC721-ownerOf}."
      },
      "renounceOwnership()": {
        "details": "Leaves the contract without owner. It will not be possible to call `onlyOwner` functions anymore. Can only be called by the current owner. NOTE: Renouncing ownership will leave the contract without an owner, thereby removing any functionality that is only available to the owner."
      },
      "safeTransferFrom(address,address,uint256)": {
        "details": "See {IERC721-safeTransferFrom}."
      },
      "safeTransferFrom(address,address,uint256,bytes)": {
        "details": "See {IERC721-safeTransferFrom}."
      },
      "setApprovalForAll(address,bool)": {
        "details": "See {IERC721-setApprovalForAll}."
      },
      "supportsInterface(bytes4)": {
        "details": "See {IERC165-supportsInterface}."
      },
      "symbol()": {
        "details": "See {IERC721Metadata-symbol}."
      },
      "tokenByIndex(uint256)": {
        "details": "See {IERC721Enumerable-tokenByIndex}."
      },
      "tokenOfOwnerByIndex(address,uint256)": {
        "details": "See {IERC721Enumerable-tokenOfOwnerByIndex}."
      },
      "totalSupply()": {
        "details": "See {IERC721Enumerable-totalSupply}."
      },
      "transferFrom(address,address,uint256)": {
        "details": "See {IERC721-transferFrom}."
      },
      "transferOwnership(address)": {
        "details": "Transfers ownership of the contract to a new account (`newOwner`). Can only be called by the current owner."
      }
    },
    "title": "RadPanda ERC-721 token contract.",
    "version": 1
  },
  "userdoc": {
    "kind": "user",
    "methods": {
      "isApprovedForAll(address,address)": {
        "notice": "Override isApprovedForAll to whitelist user's OpenSea proxy accounts to enable gas-less listings."
      }
    },
    "version": 1
  }
}