{
  "contractName": "RadPandaFactory",
  "abi": [
    {
      "inputs": [
        {
          "internalType": "address",
          "name": "_proxyRegistryAddress",
          "type": "address"
        },
        {
          "internalType": "address",
          "name": "_nftAddress",
          "type": "address"
        }
      ],
      "stateMutability": "nonpayable",
      "type": "constructor"
    },
    {
      "anonymous": false,
      "inputs": [
        {
          "indexed": true,
          "internalType": "address",
          "name": "previousOwner",
          "type": "address"
        },
        {
          "indexed": true,
          "internalType": "address",
          "name": "newOwner",
          "type": "address"
        }
      ],
      "name": "OwnershipTransferred",
      "type": "event"
    },
    {
      "anonymous": false,
      "inputs": [
        {
          "indexed": true,
          "internalType": "address",
          "name": "from",
          "type": "address"
        },
        {
          "indexed": true,
          "internalType": "address",
          "name": "to",
          "type": "address"
        },
        {
          "indexed": true,
          "internalType": "uint256",
          "name": "tokenId",
          "type": "uint256"
        }
      ],
      "name": "Transfer",
      "type": "event"
    },
    {
      "inputs": [],
      "name": "baseURI",
      "outputs": [
        {
          "internalType": "string",
          "name": "",
          "type": "string"
        }
      ],
      "stateMutability": "view",
      "type": "function"
    },
    {
      "inputs": [],
      "name": "nftAddress",
      "outputs": [
        {
          "internalType": "address",
          "name": "",
          "type": "address"
        }
      ],
      "stateMutability": "view",
      "type": "function"
    },
    {
      "inputs": [],
      "name": "owner",
      "outputs": [
        {
          "internalType": "address",
          "name": "",
          "type": "address"
        }
      ],
      "stateMutability": "view",
      "type": "function"
    },
    {
      "inputs": [],
      "name": "proxyRegistryAddress",
      "outputs": [
        {
          "internalType": "address",
          "name": "",
          "type": "address"
        }
      ],
      "stateMutability": "view",
      "type": "function"
    },
    {
      "inputs": [],
      "name": "renounceOwnership",
      "outputs": [],
      "stateMutability": "nonpayable",
      "type": "function"
    },
    {
      "inputs": [],
      "name": "name",
      "outputs": [
        {
          "internalType": "string",
          "name": "",
          "type": "string"
        }
      ],
      "stateMutability": "pure",
      "type": "function"
    },
    {
      "inputs": [],
      "name": "symbol",
      "outputs": [
        {
          "internalType": "string",
          "name": "",
          "type": "string"
        }
      ],
      "stateMutability": "pure",
      "type": "function"
    },
    {
      "inputs": [],
      "name": "supportsFactoryInterface",
      "outputs": [
        {
          "internalType": "bool",
          "name": "",
          "type": "bool"
        }
      ],
      "stateMutability": "pure",
      "type": "function"
    },
    {
      "inputs": [],
      "name": "numOptions",
      "outputs": [
        {
          "internalType": "uint256",
          "name": "",
          "type": "uint256"
        }
      ],
      "stateMutability": "view",
      "type": "function"
    },
    {
      "inputs": [
        {
          "internalType": "address",
          "name": "newOwner",
          "type": "address"
        }
      ],
      "name": "transferOwnership",
      "outputs": [],
      "stateMutability": "nonpayable",
      "type": "function"
    },
    {
      "inputs": [
        {
          "internalType": "uint256",
          "name": "_optionId",
          "type": "uint256"
        },
        {
          "internalType": "address",
          "name": "_toAddress",
          "type": "address"
        }
      ],
      "name": "mint",
      "outputs": [],
      "stateMutability": "nonpayable",
      "type": "function"
    },
    {
      "inputs": [
        {
          "internalType": "uint256",
          "name": "_optionId",
          "type": "uint256"
        }
      ],
      "name": "canMint",
      "outputs": [
        {
          "internalType": "bool",
          "name": "",
          "type": "bool"
        }
      ],
      "stateMutability": "view",
      "type": "function"
    },
    {
      "inputs": [
        {
          "internalType": "uint256",
          "name": "_optionId",
          "type": "uint256"
        }
      ],
      "name": "tokenURI",
      "outputs": [
        {
          "internalType": "string",
          "name": "",
          "type": "string"
        }
      ],
      "stateMutability": "view",
      "type": "function"
    },
    {
      "inputs": [
        {
          "internalType": "address",
          "name": "_from",
          "type": "address"
        },
        {
          "internalType": "address",
          "name": "_to",
          "type": "address"
        },
        {
          "internalType": "uint256",
          "name": "_tokenId",
          "type": "uint256"
        }
      ],
      "name": "transferFrom",
      "outputs": [],
      "stateMutability": "nonpayable",
      "type": "function"
    },
    {
      "inputs": [
        {
          "internalType": "address",
          "name": "_owner",
          "type": "address"
        },
        {
          "internalType": "address",
          "name": "_operator",
          "type": "address"
        }
      ],
      "name": "isApprovedForAll",
      "outputs": [
        {
          "internalType": "bool",
          "name": "",
          "type": "bool"
        }
      ],
      "stateMutability": "view",
      "type": "function"
    },
    {
      "inputs": [
        {
          "internalType": "uint256",
          "name": "_tokenId",
          "type": "uint256"
        }
      ],
      "name": "ownerOf",
      "outputs": [
        {
          "internalType": "address",
          "name": "_owner",
          "type": "address"
        }
      ],
      "stateMutability": "view",
      "type": "function"
    }
  ],
  "bytecode": "0x608060405260405180606001604052806027815260200162001c82602791396003908051906020019062000035929190620002c3565b506127106004556002600555600060065560016007553480156200005857600080fd5b5060405162001ca938038062001ca983398181016040528101906200007e91906200038a565b6200009e620000926200014a60201b60201c565b6200015260201b60201c565b81600160006101000a81548173ffffffffffffffffffffffffffffffffffffffff021916908373ffffffffffffffffffffffffffffffffffffffff16021790555080600260006101000a81548173ffffffffffffffffffffffffffffffffffffffff021916908373ffffffffffffffffffffffffffffffffffffffff160217905550620001426000620001366200021660201b60201c565b6200023f60201b60201c565b505062000510565b600033905090565b60008060009054906101000a900473ffffffffffffffffffffffffffffffffffffffff169050816000806101000a81548173ffffffffffffffffffffffffffffffffffffffff021916908373ffffffffffffffffffffffffffffffffffffffff1602179055508173ffffffffffffffffffffffffffffffffffffffff168173ffffffffffffffffffffffffffffffffffffffff167f8be0079c531659141344cd1fd0a4f28419497f9722a3daafe3b4186f6b6457e060405160405180910390a35050565b60008060009054906101000a900473ffffffffffffffffffffffffffffffffffffffff16905090565b60005b600554811015620002be57808273ffffffffffffffffffffffffffffffffffffffff168473ffffffffffffffffffffffffffffffffffffffff167fddf252ad1be2c89b69c2b068fc378daa952ba7f163c4a11628f55a4df523b3ef60405160405180910390a48080620002b59062000445565b91505062000242565b505050565b828054620002d1906200040f565b90600052602060002090601f016020900481019282620002f5576000855562000341565b82601f106200031057805160ff191683800117855562000341565b8280016001018555821562000341579182015b828111156200034057825182559160200191906001019062000323565b5b50905062000350919062000354565b5090565b5b808211156200036f57600081600090555060010162000355565b5090565b6000815190506200038481620004f6565b92915050565b60008060408385031215620003a457620003a3620004f1565b5b6000620003b48582860162000373565b9250506020620003c78582860162000373565b9150509250929050565b6000620003de82620003e5565b9050919050565b600073ffffffffffffffffffffffffffffffffffffffff82169050919050565b6000819050919050565b600060028204905060018216806200042857607f821691505b602082108114156200043f576200043e620004c2565b5b50919050565b6000620004528262000405565b91507fffffffffffffffffffffffffffffffffffffffffffffffffffffffffffffffff82141562000488576200048762000493565b5b600182019050919050565b7f4e487b7100000000000000000000000000000000000000000000000000000000600052601160045260246000fd5b7f4e487b7100000000000000000000000000000000000000000000000000000000600052602260045260246000fd5b600080fd5b6200050181620003d1565b81146200050d57600080fd5b50565b61176280620005206000396000f3fe608060405234801561001057600080fd5b50600436106101005760003560e01c80638da5cb5b11610097578063c87b56dd11610066578063c87b56dd14610279578063cd7c0326146102a9578063e985e9c5146102c7578063f2fde38b146102f757610100565b80638da5cb5b1461020357806394bf804d1461022157806395d89b411461023d578063c311c5231461025b57610100565b80635dd871a3116100d35780635dd871a31461017b5780636352211e146101ab5780636c0360eb146101db578063715018a6146101f957610100565b806306fdde031461010557806323b872dd146101235780634b97aed91461013f5780635bf8633a1461015d575b600080fd5b61010d610313565b60405161011a9190611292565b60405180910390f35b61013d60048036038101906101389190610fc2565b610350565b005b61014761035f565b60405161015491906112f4565b60405180910390f35b610165610369565b604051610172919061125c565b60405180910390f35b61019560048036038101906101909190611042565b61038f565b6040516101a29190611277565b60405180910390f35b6101c560048036038101906101c09190611042565b61048c565b6040516101d2919061125c565b60405180910390f35b6101e361049d565b6040516101f09190611292565b60405180910390f35b61020161052b565b005b61020b6105b3565b604051610218919061125c565b60405180910390f35b61023b6004803603810190610236919061109c565b6105dc565b005b610245610869565b6040516102529190611292565b60405180910390f35b6102636108a6565b6040516102709190611277565b60405180910390f35b610293600480360381019061028e9190611042565b6108af565b6040516102a09190611292565b60405180910390f35b6102b16108e3565b6040516102be919061125c565b60405180910390f35b6102e160048036038101906102dc9190610f82565b610909565b6040516102ee9190611277565b60405180910390f35b610311600480360381019061030c9190610f55565b610abd565b005b60606040518060400160405280601981526020017f5261644b696e67646f6d2050616e6461204e46542053616c6500000000000000815250905090565b61035a81836105dc565b505050565b6000600554905090565b600260009054906101000a900473ffffffffffffffffffffffffffffffffffffffff1681565b600060055482106103a35760009050610487565b6000600260009054906101000a900473ffffffffffffffffffffffffffffffffffffffff16905060008173ffffffffffffffffffffffffffffffffffffffff166318160ddd6040518163ffffffff1660e01b815260040160206040518083038186803b15801561041257600080fd5b505afa158015610426573d6000803e3d6000fd5b505050506040513d601f19601f8201168201806040525081019061044a919061106f565b905060006006548514156104615760019050610471565b60075485141561047057600390505b5b8060045461047f91906113d2565b821093505050505b919050565b60006104966105b3565b9050919050565b600380546104aa90611493565b80601f01602080910402602001604051908101604052809291908181526020018280546104d690611493565b80156105235780601f106104f857610100808354040283529160200191610523565b820191906000526020600020905b81548152906001019060200180831161050657829003601f168201915b505050505081565b610533610b5c565b73ffffffffffffffffffffffffffffffffffffffff166105516105b3565b73ffffffffffffffffffffffffffffffffffffffff16146105a7576040517f08c379a000000000000000000000000000000000000000000000000000000000815260040161059e906112d4565b60405180910390fd5b6105b16000610b64565b565b60008060009054906101000a900473ffffffffffffffffffffffffffffffffffffffff16905090565b6000600160009054906101000a900473ffffffffffffffffffffffffffffffffffffffff16905061060b610b5c565b73ffffffffffffffffffffffffffffffffffffffff168173ffffffffffffffffffffffffffffffffffffffff1663c45527916106456105b3565b6040518263ffffffff1660e01b8152600401610661919061125c565b60206040518083038186803b15801561067957600080fd5b505afa15801561068d573d6000803e3d6000fd5b505050506040513d601f19601f820116820180604052508101906106b19190611015565b73ffffffffffffffffffffffffffffffffffffffff16148061070c57506106d6610b5c565b73ffffffffffffffffffffffffffffffffffffffff166106f46105b3565b73ffffffffffffffffffffffffffffffffffffffff16145b6107195761071861153f565b5b6107228361038f565b61072b57600080fd5b6000600260009054906101000a900473ffffffffffffffffffffffffffffffffffffffff1690506006548414156107cc578073ffffffffffffffffffffffffffffffffffffffff1663755edd17846040518263ffffffff1660e01b8152600401610795919061125c565b600060405180830381600087803b1580156107af57600080fd5b505af11580156107c3573d6000803e3d6000fd5b50505050610863565b6007548414156108625760005b6003811015610860578173ffffffffffffffffffffffffffffffffffffffff1663755edd17856040518263ffffffff1660e01b815260040161081b919061125c565b600060405180830381600087803b15801561083557600080fd5b505af1158015610849573d6000803e3d6000fd5b505050508080610858906114c5565b9150506107d9565b505b5b50505050565b60606040518060400160405280600581526020017f50414e4441000000000000000000000000000000000000000000000000000000815250905090565b60006001905090565b606060036108bc83610c28565b6040516020016108cd929190611238565b6040516020818303038152906040529050919050565b600160009054906101000a900473ffffffffffffffffffffffffffffffffffffffff1681565b60008273ffffffffffffffffffffffffffffffffffffffff1661092a6105b3565b73ffffffffffffffffffffffffffffffffffffffff1614801561097857508173ffffffffffffffffffffffffffffffffffffffff168373ffffffffffffffffffffffffffffffffffffffff16145b156109865760019050610ab7565b6000600160009054906101000a900473ffffffffffffffffffffffffffffffffffffffff1690508373ffffffffffffffffffffffffffffffffffffffff166109cc6105b3565b73ffffffffffffffffffffffffffffffffffffffff16148015610aa257508273ffffffffffffffffffffffffffffffffffffffff168173ffffffffffffffffffffffffffffffffffffffff1663c4552791866040518263ffffffff1660e01b8152600401610a3a919061125c565b60206040518083038186803b158015610a5257600080fd5b505afa158015610a66573d6000803e3d6000fd5b505050506040513d601f19601f82011682018060405250810190610a8a9190611015565b73ffffffffffffffffffffffffffffffffffffffff16145b15610ab1576001915050610ab7565b60009150505b92915050565b610ac5610b5c565b73ffffffffffffffffffffffffffffffffffffffff16610ae36105b3565b73ffffffffffffffffffffffffffffffffffffffff1614610b39576040517f08c379a0000000000000000000000000000000000000000000000000000000008152600401610b30906112d4565b60405180910390fd5b6000610b436105b3565b9050610b4e82610d89565b610b588183610e81565b5050565b600033905090565b60008060009054906101000a900473ffffffffffffffffffffffffffffffffffffffff169050816000806101000a81548173ffffffffffffffffffffffffffffffffffffffff021916908373ffffffffffffffffffffffffffffffffffffffff1602179055508173ffffffffffffffffffffffffffffffffffffffff168173ffffffffffffffffffffffffffffffffffffffff167f8be0079c531659141344cd1fd0a4f28419497f9722a3daafe3b4186f6b6457e060405160405180910390a35050565b60606000821415610c70576040518060400160405280600181526020017f30000000000000000000000000000000000000000000000000000000000000008152509050610d84565b600082905060005b60008214610ca2578080610c8b906114c5565b915050600a82610c9b91906113a1565b9150610c78565b60008167ffffffffffffffff811115610cbe57610cbd61162a565b5b6040519080825280601f01601f191660200182016040528015610cf05781602001600182028036833780820191505090505b5090505b60008514610d7d57600182610d0991906113d2565b9150600a85610d18919061150e565b6030610d24919061134b565b60f81b818381518110610d3a57610d396115fb565b5b60200101907effffffffffffffffffffffffffffffffffffffffffffffffffffffffffffff1916908160001a905350600a85610d7691906113a1565b9450610cf4565b8093505050505b919050565b610d91610b5c565b73ffffffffffffffffffffffffffffffffffffffff16610daf6105b3565b73ffffffffffffffffffffffffffffffffffffffff1614610e05576040517f08c379a0000000000000000000000000000000000000000000000000000000008152600401610dfc906112d4565b60405180910390fd5b600073ffffffffffffffffffffffffffffffffffffffff168173ffffffffffffffffffffffffffffffffffffffff161415610e75576040517f08c379a0000000000000000000000000000000000000000000000000000000008152600401610e6c906112b4565b60405180910390fd5b610e7e81610b64565b50565b60005b600554811015610efc57808273ffffffffffffffffffffffffffffffffffffffff168473ffffffffffffffffffffffffffffffffffffffff167fddf252ad1be2c89b69c2b068fc378daa952ba7f163c4a11628f55a4df523b3ef60405160405180910390a48080610ef4906114c5565b915050610e84565b505050565b600081359050610f10816116e7565b92915050565b600081519050610f25816116fe565b92915050565b600081359050610f3a81611715565b92915050565b600081519050610f4f81611715565b92915050565b600060208284031215610f6b57610f6a611659565b5b6000610f7984828501610f01565b91505092915050565b60008060408385031215610f9957610f98611659565b5b6000610fa785828601610f01565b9250506020610fb885828601610f01565b9150509250929050565b600080600060608486031215610fdb57610fda611659565b5b6000610fe986828701610f01565b9350506020610ffa86828701610f01565b925050604061100b86828701610f2b565b9150509250925092565b60006020828403121561102b5761102a611659565b5b600061103984828501610f16565b91505092915050565b60006020828403121561105857611057611659565b5b600061106684828501610f2b565b91505092915050565b60006020828403121561108557611084611659565b5b600061109384828501610f40565b91505092915050565b600080604083850312156110b3576110b2611659565b5b60006110c185828601610f2b565b92505060206110d285828601610f01565b9150509250929050565b6110e581611406565b82525050565b6110f481611418565b82525050565b600061110582611324565b61110f818561132f565b935061111f818560208601611460565b6111288161165e565b840191505092915050565b600061113e82611324565b6111488185611340565b9350611158818560208601611460565b80840191505092915050565b6000815461117181611493565b61117b8186611340565b9450600182166000811461119657600181146111a7576111da565b60ff198316865281860193506111da565b6111b08561130f565b60005b838110156111d2578154818901526001820191506020810190506111b3565b838801955050505b50505092915050565b60006111f060268361132f565b91506111fb8261166f565b604082019050919050565b600061121360208361132f565b915061121e826116be565b602082019050919050565b61123281611456565b82525050565b60006112448285611164565b91506112508284611133565b91508190509392505050565b600060208201905061127160008301846110dc565b92915050565b600060208201905061128c60008301846110eb565b92915050565b600060208201905081810360008301526112ac81846110fa565b905092915050565b600060208201905081810360008301526112cd816111e3565b9050919050565b600060208201905081810360008301526112ed81611206565b9050919050565b60006020820190506113096000830184611229565b92915050565b60008190508160005260206000209050919050565b600081519050919050565b600082825260208201905092915050565b600081905092915050565b600061135682611456565b915061136183611456565b9250827fffffffffffffffffffffffffffffffffffffffffffffffffffffffffffffffff038211156113965761139561156e565b5b828201905092915050565b60006113ac82611456565b91506113b783611456565b9250826113c7576113c661159d565b5b828204905092915050565b60006113dd82611456565b91506113e883611456565b9250828210156113fb576113fa61156e565b5b828203905092915050565b600061141182611436565b9050919050565b60008115159050919050565b600061142f82611406565b9050919050565b600073ffffffffffffffffffffffffffffffffffffffff82169050919050565b6000819050919050565b60005b8381101561147e578082015181840152602081019050611463565b8381111561148d576000848401525b50505050565b600060028204905060018216806114ab57607f821691505b602082108114156114bf576114be6115cc565b5b50919050565b60006114d082611456565b91507fffffffffffffffffffffffffffffffffffffffffffffffffffffffffffffffff8214156115035761150261156e565b5b600182019050919050565b600061151982611456565b915061152483611456565b9250826115345761153361159d565b5b828206905092915050565b7f4e487b7100000000000000000000000000000000000000000000000000000000600052600160045260246000fd5b7f4e487b7100000000000000000000000000000000000000000000000000000000600052601160045260246000fd5b7f4e487b7100000000000000000000000000000000000000000000000000000000600052601260045260246000fd5b7f4e487b7100000000000000000000000000000000000000000000000000000000600052602260045260246000fd5b7f4e487b7100000000000000000000000000000000000000000000000000000000600052603260045260246000fd5b7f4e487b7100000000000000000000000000000000000000000000000000000000600052604160045260246000fd5b600080fd5b6000601f19601f8301169050919050565b7f4f776e61626c653a206e6577206f776e657220697320746865207a65726f206160008201527f6464726573730000000000000000000000000000000000000000000000000000602082015250565b7f4f776e61626c653a2063616c6c6572206973206e6f7420746865206f776e6572600082015250565b6116f081611406565b81146116fb57600080fd5b50565b61170781611424565b811461171257600080fd5b50565b61171e81611456565b811461172957600080fd5b5056fea26469706673582212209dcc0fd22694f76f30754d58170847ff8a2d5529ede2d5fa8f9daeaa73dd3f3664736f6c6343000806003368747470733a2f2f616e696d616c2d6b696e67646f6d2e7261642e6c6976652f70616e6461732f",
  "immutableReferences": {},
  "source": "// SPDX-License-Identifier: MIT\r\npragma solidity ^0.8.0;\r\n\r\nimport \"@openzeppelin/contracts/access/Ownable.sol\";\r\nimport \"@openzeppelin/contracts/utils/Strings.sol\";\r\nimport \"./IFactoryERC721.sol\";\r\nimport \"./RadPanda.sol\";\r\n\r\ncontract RadPandaFactory is FactoryERC721, Ownable {\r\n  using Strings for string;\r\n\r\n  event Transfer(\r\n    address indexed from,\r\n    address indexed to,\r\n    uint256 indexed tokenId\r\n  );\r\n\r\n  address public proxyRegistryAddress;\r\n  address public nftAddress;\r\n  string public baseURI = \"https://animal-kingdom.rad.live/pandas/\";\r\n\r\n  /// @dev Limit max token supply to ten thousand.\r\n  uint256 MAX_SUPPLY = 10000;\r\n\r\n  uint256 NUM_OPTIONS = 2;\r\n  uint256 ONE_PANDA = 0;\r\n  uint256 THREE_PANDAS = 1;\r\n\r\n  constructor(address _proxyRegistryAddress, address _nftAddress) {\r\n    proxyRegistryAddress = _proxyRegistryAddress;\r\n    nftAddress = _nftAddress;\r\n\r\n    fireTransferEvents(address(0), owner());\r\n  }\r\n\r\n  function name() override external pure returns (string memory) {\r\n    return \"RadKingdom Panda NFT Sale\";\r\n  }\r\n\r\n  function symbol() override external pure returns (string memory) {\r\n    return \"PANDA\";\r\n  }\r\n\r\n  function supportsFactoryInterface() override public pure returns (bool) {\r\n    return true;\r\n  }\r\n\r\n  function numOptions() override public view returns (uint256) {\r\n    return NUM_OPTIONS;\r\n  }\r\n\r\n  function transferOwnership(address newOwner) override public onlyOwner {\r\n    address _prevOwner = owner();\r\n    super.transferOwnership(newOwner);\r\n\r\n    fireTransferEvents(_prevOwner, newOwner);\r\n  }\r\n\r\n  function fireTransferEvents(address _from, address _to) private {\r\n    for (uint256 i = 0; i < NUM_OPTIONS; i++) {\r\n      emit Transfer(_from, _to, i);\r\n    }\r\n  }\r\n\r\n  function mint(uint256 _optionId, address _toAddress) override public {\r\n    ProxyRegistry proxyRegistry = ProxyRegistry(proxyRegistryAddress);\r\n    assert(address(proxyRegistry.proxies(owner())) == _msgSender() || owner() == _msgSender());\r\n    require(canMint(_optionId));\r\n\r\n    RadPanda radPanda = RadPanda(nftAddress);\r\n    if (_optionId == ONE_PANDA) {\r\n      radPanda.mintTo(_toAddress);\r\n    } else if (_optionId == THREE_PANDAS) {\r\n      for (uint256 i=0; i<3; i++) {\r\n        radPanda.mintTo(_toAddress);\r\n      }\r\n    }\r\n  }\r\n\r\n  function canMint(uint256 _optionId) override public view returns (bool) {\r\n    if (_optionId >= NUM_OPTIONS) {\r\n      return false;\r\n    }\r\n\r\n    RadPanda radPanda = RadPanda(nftAddress);\r\n    uint256 pandaSupply = radPanda.totalSupply();\r\n\r\n    uint256 numItemsAllocated = 0;\r\n    if (_optionId == ONE_PANDA) {\r\n      numItemsAllocated = 1;\r\n    } else if (_optionId == THREE_PANDAS) {\r\n      numItemsAllocated = 3;\r\n    }\r\n\r\n    return pandaSupply < (MAX_SUPPLY - numItemsAllocated);\r\n  }\r\n\r\n  function tokenURI(uint256 _optionId) override external view returns (string memory) {\r\n    return string(abi.encodePacked(baseURI, Strings.toString(_optionId)));\r\n  }\r\n\r\n  /**\r\n   * Hack to get things to work automatically on OpenSea.\r\n   * Use transferFrom so the frontend doesn't have to worry about different method names.\r\n   */\r\n  function transferFrom(\r\n    address _from,\r\n    address _to,\r\n    uint256 _tokenId\r\n  ) public {\r\n    mint(_tokenId, _to);\r\n  }\r\n\r\n  /**\r\n   * Hack to get things to work automatically on OpenSea.\r\n   * Use isApprovedForAll so the frontend doesn't have to worry about different method names.\r\n   */\r\n  function isApprovedForAll(address _owner, address _operator)\r\n    public\r\n    view\r\n    returns (bool)\r\n  {\r\n    if (owner() == _owner && _owner == _operator) {\r\n      return true;\r\n    }\r\n\r\n    ProxyRegistry proxyRegistry = ProxyRegistry(proxyRegistryAddress);\r\n    if (\r\n      owner() == _owner &&\r\n      address(proxyRegistry.proxies(_owner)) == _operator\r\n    ) {\r\n      return true;\r\n    }\r\n\r\n    return false;\r\n  }\r\n\r\n  /**\r\n   * Hack to get things to work automatically on OpenSea.\r\n   * Use isApprovedForAll so the frontend doesn't have to worry about different method names.\r\n   */\r\n  function ownerOf(uint256 _tokenId) public view returns (address _owner) {\r\n    return owner();\r\n  }\r\n}",
  "sourcePath": "C:/Users/Josh/Documents/Josh/GitHub/rad-pandas/blockchain/contracts/RadPandaFactory.sol",
  "compiler": {
    "name": "solc",
    "version": "0.8.6+commit.11564f7e.Emscripten.clang"
  },
  "schemaVersion": "3.3.3",
  "updatedAt": "2021-08-08T00:21:29.227Z",
  "devdoc": {
    "kind": "dev",
    "methods": {
      "canMint(uint256)": {
        "details": "Returns whether the option ID can be minted. Can return false if the developer wishes to restrict a total supply per option ID (or overall)."
      },
      "mint(uint256,address)": {
        "details": "Mints asset(s) in accordance to a specific address with a particular \"option\". This should be callable only by the contract owner or the owner's Wyvern Proxy (later universal login will solve this). Options should also be delineated 0 - (numOptions() - 1) for convenient indexing.",
        "params": {
          "_optionId": "the option id",
          "_toAddress": "address of the future owner of the asset(s)"
        }
      },
      "owner()": {
        "details": "Returns the address of the current owner."
      },
      "renounceOwnership()": {
        "details": "Leaves the contract without owner. It will not be possible to call `onlyOwner` functions anymore. Can only be called by the current owner. NOTE: Renouncing ownership will leave the contract without an owner, thereby removing any functionality that is only available to the owner."
      },
      "tokenURI(uint256)": {
        "details": "Returns a URL specifying some metadata about the option. This metadata can be of the same structure as the ERC721 metadata."
      },
      "transferOwnership(address)": {
        "details": "Transfers ownership of the contract to a new account (`newOwner`). Can only be called by the current owner."
      }
    },
    "stateVariables": {
      "MAX_SUPPLY": {
        "details": "Limit max token supply to ten thousand."
      }
    },
    "version": 1
  },
  "userdoc": {
    "kind": "user",
    "methods": {
      "isApprovedForAll(address,address)": {
        "notice": "Hack to get things to work automatically on OpenSea. Use isApprovedForAll so the frontend doesn't have to worry about different method names."
      },
      "name()": {
        "notice": "Returns the name of this factory."
      },
      "numOptions()": {
        "notice": "Number of options the factory supports."
      },
      "ownerOf(uint256)": {
        "notice": "Hack to get things to work automatically on OpenSea. Use isApprovedForAll so the frontend doesn't have to worry about different method names."
      },
      "supportsFactoryInterface()": {
        "notice": "Indicates that this is a factory contract. Ideally would use EIP 165 supportsInterface()"
      },
      "symbol()": {
        "notice": "Returns the symbol for this factory."
      },
      "transferFrom(address,address,uint256)": {
        "notice": "Hack to get things to work automatically on OpenSea. Use transferFrom so the frontend doesn't have to worry about different method names."
      }
    },
    "version": 1
  }
}