{
  "contractName": "RadPanda",
  "abi": [
    {
      "inputs": [
        {
          "internalType": "address",
          "name": "_proxyRegistryAddress",
          "type": "address"
        }
      ],
      "stateMutability": "nonpayable",
      "type": "constructor"
    },
    {
      "anonymous": false,
      "inputs": [
        {
          "indexed": true,
          "internalType": "address",
          "name": "owner",
          "type": "address"
        },
        {
          "indexed": true,
          "internalType": "address",
          "name": "approved",
          "type": "address"
        },
        {
          "indexed": true,
          "internalType": "uint256",
          "name": "tokenId",
          "type": "uint256"
        }
      ],
      "name": "Approval",
      "type": "event"
    },
    {
      "anonymous": false,
      "inputs": [
        {
          "indexed": true,
          "internalType": "address",
          "name": "owner",
          "type": "address"
        },
        {
          "indexed": true,
          "internalType": "address",
          "name": "operator",
          "type": "address"
        },
        {
          "indexed": false,
          "internalType": "bool",
          "name": "approved",
          "type": "bool"
        }
      ],
      "name": "ApprovalForAll",
      "type": "event"
    },
    {
      "anonymous": false,
      "inputs": [
        {
          "indexed": false,
          "internalType": "address",
          "name": "userAddress",
          "type": "address"
        },
        {
          "indexed": false,
          "internalType": "address payable",
          "name": "relayerAddress",
          "type": "address"
        },
        {
          "indexed": false,
          "internalType": "bytes",
          "name": "functionSignature",
          "type": "bytes"
        }
      ],
      "name": "MetaTransactionExecuted",
      "type": "event"
    },
    {
      "anonymous": false,
      "inputs": [
        {
          "indexed": true,
          "internalType": "address",
          "name": "previousOwner",
          "type": "address"
        },
        {
          "indexed": true,
          "internalType": "address",
          "name": "newOwner",
          "type": "address"
        }
      ],
      "name": "OwnershipTransferred",
      "type": "event"
    },
    {
      "anonymous": false,
      "inputs": [
        {
          "indexed": true,
          "internalType": "address",
          "name": "from",
          "type": "address"
        },
        {
          "indexed": true,
          "internalType": "address",
          "name": "to",
          "type": "address"
        },
        {
          "indexed": true,
          "internalType": "uint256",
          "name": "tokenId",
          "type": "uint256"
        }
      ],
      "name": "Transfer",
      "type": "event"
    },
    {
      "inputs": [],
      "name": "ERC712_VERSION",
      "outputs": [
        {
          "internalType": "string",
          "name": "",
          "type": "string"
        }
      ],
      "stateMutability": "view",
      "type": "function",
      "constant": true
    },
    {
      "inputs": [
        {
          "internalType": "address",
          "name": "to",
          "type": "address"
        },
        {
          "internalType": "uint256",
          "name": "tokenId",
          "type": "uint256"
        }
      ],
      "name": "approve",
      "outputs": [],
      "stateMutability": "nonpayable",
      "type": "function"
    },
    {
      "inputs": [
        {
          "internalType": "address",
          "name": "owner",
          "type": "address"
        }
      ],
      "name": "balanceOf",
      "outputs": [
        {
          "internalType": "uint256",
          "name": "",
          "type": "uint256"
        }
      ],
      "stateMutability": "view",
      "type": "function",
      "constant": true
    },
    {
      "inputs": [
        {
          "internalType": "address",
          "name": "userAddress",
          "type": "address"
        },
        {
          "internalType": "bytes",
          "name": "functionSignature",
          "type": "bytes"
        },
        {
          "internalType": "bytes32",
          "name": "sigR",
          "type": "bytes32"
        },
        {
          "internalType": "bytes32",
          "name": "sigS",
          "type": "bytes32"
        },
        {
          "internalType": "uint8",
          "name": "sigV",
          "type": "uint8"
        }
      ],
      "name": "executeMetaTransaction",
      "outputs": [
        {
          "internalType": "bytes",
          "name": "",
          "type": "bytes"
        }
      ],
      "stateMutability": "payable",
      "type": "function",
      "payable": true
    },
    {
      "inputs": [
        {
          "internalType": "uint256",
          "name": "tokenId",
          "type": "uint256"
        }
      ],
      "name": "getApproved",
      "outputs": [
        {
          "internalType": "address",
          "name": "",
          "type": "address"
        }
      ],
      "stateMutability": "view",
      "type": "function",
      "constant": true
    },
    {
      "inputs": [],
      "name": "getChainId",
      "outputs": [
        {
          "internalType": "uint256",
          "name": "",
          "type": "uint256"
        }
      ],
      "stateMutability": "view",
      "type": "function",
      "constant": true
    },
    {
      "inputs": [],
      "name": "getDomainSeperator",
      "outputs": [
        {
          "internalType": "bytes32",
          "name": "",
          "type": "bytes32"
        }
      ],
      "stateMutability": "view",
      "type": "function",
      "constant": true
    },
    {
      "inputs": [
        {
          "internalType": "address",
          "name": "user",
          "type": "address"
        }
      ],
      "name": "getNonce",
      "outputs": [
        {
          "internalType": "uint256",
          "name": "nonce",
          "type": "uint256"
        }
      ],
      "stateMutability": "view",
      "type": "function",
      "constant": true
    },
    {
      "inputs": [
        {
          "internalType": "address",
          "name": "owner",
          "type": "address"
        },
        {
          "internalType": "address",
          "name": "operator",
          "type": "address"
        }
      ],
      "name": "isApprovedForAll",
      "outputs": [
        {
          "internalType": "bool",
          "name": "",
          "type": "bool"
        }
      ],
      "stateMutability": "view",
      "type": "function",
      "constant": true
    },
    {
      "inputs": [
        {
          "internalType": "address",
          "name": "_to",
          "type": "address"
        }
      ],
      "name": "mintTo",
      "outputs": [],
      "stateMutability": "nonpayable",
      "type": "function"
    },
    {
      "inputs": [],
      "name": "name",
      "outputs": [
        {
          "internalType": "string",
          "name": "",
          "type": "string"
        }
      ],
      "stateMutability": "view",
      "type": "function",
      "constant": true
    },
    {
      "inputs": [],
      "name": "owner",
      "outputs": [
        {
          "internalType": "address",
          "name": "",
          "type": "address"
        }
      ],
      "stateMutability": "view",
      "type": "function",
      "constant": true
    },
    {
      "inputs": [
        {
          "internalType": "uint256",
          "name": "tokenId",
          "type": "uint256"
        }
      ],
      "name": "ownerOf",
      "outputs": [
        {
          "internalType": "address",
          "name": "",
          "type": "address"
        }
      ],
      "stateMutability": "view",
      "type": "function",
      "constant": true
    },
    {
      "inputs": [],
      "name": "renounceOwnership",
      "outputs": [],
      "stateMutability": "nonpayable",
      "type": "function"
    },
    {
      "inputs": [
        {
          "internalType": "address",
          "name": "from",
          "type": "address"
        },
        {
          "internalType": "address",
          "name": "to",
          "type": "address"
        },
        {
          "internalType": "uint256",
          "name": "tokenId",
          "type": "uint256"
        }
      ],
      "name": "safeTransferFrom",
      "outputs": [],
      "stateMutability": "nonpayable",
      "type": "function"
    },
    {
      "inputs": [
        {
          "internalType": "address",
          "name": "from",
          "type": "address"
        },
        {
          "internalType": "address",
          "name": "to",
          "type": "address"
        },
        {
          "internalType": "uint256",
          "name": "tokenId",
          "type": "uint256"
        },
        {
          "internalType": "bytes",
          "name": "_data",
          "type": "bytes"
        }
      ],
      "name": "safeTransferFrom",
      "outputs": [],
      "stateMutability": "nonpayable",
      "type": "function"
    },
    {
      "inputs": [
        {
          "internalType": "address",
          "name": "operator",
          "type": "address"
        },
        {
          "internalType": "bool",
          "name": "approved",
          "type": "bool"
        }
      ],
      "name": "setApprovalForAll",
      "outputs": [],
      "stateMutability": "nonpayable",
      "type": "function"
    },
    {
      "inputs": [
        {
          "internalType": "bytes4",
          "name": "interfaceId",
          "type": "bytes4"
        }
      ],
      "name": "supportsInterface",
      "outputs": [
        {
          "internalType": "bool",
          "name": "",
          "type": "bool"
        }
      ],
      "stateMutability": "view",
      "type": "function",
      "constant": true
    },
    {
      "inputs": [],
      "name": "symbol",
      "outputs": [
        {
          "internalType": "string",
          "name": "",
          "type": "string"
        }
      ],
      "stateMutability": "view",
      "type": "function",
      "constant": true
    },
    {
      "inputs": [
        {
          "internalType": "uint256",
          "name": "index",
          "type": "uint256"
        }
      ],
      "name": "tokenByIndex",
      "outputs": [
        {
          "internalType": "uint256",
          "name": "",
          "type": "uint256"
        }
      ],
      "stateMutability": "view",
      "type": "function",
      "constant": true
    },
    {
      "inputs": [
        {
          "internalType": "address",
          "name": "owner",
          "type": "address"
        },
        {
          "internalType": "uint256",
          "name": "index",
          "type": "uint256"
        }
      ],
      "name": "tokenOfOwnerByIndex",
      "outputs": [
        {
          "internalType": "uint256",
          "name": "",
          "type": "uint256"
        }
      ],
      "stateMutability": "view",
      "type": "function",
      "constant": true
    },
    {
      "inputs": [
        {
          "internalType": "uint256",
          "name": "_tokenId",
          "type": "uint256"
        }
      ],
      "name": "tokenURI",
      "outputs": [
        {
          "internalType": "string",
          "name": "",
          "type": "string"
        }
      ],
      "stateMutability": "pure",
      "type": "function",
      "constant": true
    },
    {
      "inputs": [],
      "name": "totalSupply",
      "outputs": [
        {
          "internalType": "uint256",
          "name": "",
          "type": "uint256"
        }
      ],
      "stateMutability": "view",
      "type": "function",
      "constant": true
    },
    {
      "inputs": [
        {
          "internalType": "address",
          "name": "from",
          "type": "address"
        },
        {
          "internalType": "address",
          "name": "to",
          "type": "address"
        },
        {
          "internalType": "uint256",
          "name": "tokenId",
          "type": "uint256"
        }
      ],
      "name": "transferFrom",
      "outputs": [],
      "stateMutability": "nonpayable",
      "type": "function"
    },
    {
      "inputs": [
        {
          "internalType": "address",
          "name": "newOwner",
          "type": "address"
        }
      ],
      "name": "transferOwnership",
      "outputs": [],
      "stateMutability": "nonpayable",
      "type": "function"
    },
    {
      "inputs": [],
      "name": "baseTokenURI",
      "outputs": [
        {
          "internalType": "string",
          "name": "",
          "type": "string"
        }
      ],
      "stateMutability": "pure",
      "type": "function",
      "constant": true
    },
    {
      "inputs": [],
      "name": "contractURI",
      "outputs": [
        {
          "internalType": "string",
          "name": "",
          "type": "string"
        }
      ],
      "stateMutability": "pure",
      "type": "function",
      "constant": true
    }
  ],
  "bytecode": "0x60806040526000600a60006101000a81548160ff0219169083151502179055506000600f553480156200003157600080fd5b506040516200490b3803806200490b833981810160405281019062000057919062000510565b6040518060400160405280601181526020017f5261644b696e67646f6d2050616e6461730000000000000000000000000000008152506040518060400160405280600581526020017f50414e44410000000000000000000000000000000000000000000000000000008152508282828160009080519060200190620000de92919062000449565b508060019080519060200190620000f792919062000449565b5050506200011a6200010e6200017660201b60201c565b6200019260201b60201c565b80600e60006101000a81548173ffffffffffffffffffffffffffffffffffffffff021916908373ffffffffffffffffffffffffffffffffffffffff1602179055506200016c836200025860201b60201c565b5050505062000706565b60006200018d620002da60201b620015a91760201c565b905090565b6000600d60009054906101000a900473ffffffffffffffffffffffffffffffffffffffff16905081600d60006101000a81548173ffffffffffffffffffffffffffffffffffffffff021916908373ffffffffffffffffffffffffffffffffffffffff1602179055508173ffffffffffffffffffffffffffffffffffffffff168173ffffffffffffffffffffffffffffffffffffffff167f8be0079c531659141344cd1fd0a4f28419497f9722a3daafe3b4186f6b6457e060405160405180910390a35050565b600a60009054906101000a900460ff1615620002ab576040517f08c379a0000000000000000000000000000000000000000000000000000000008152600401620002a290620005e8565b60405180910390fd5b620002bc816200038d60201b60201c565b6001600a60006101000a81548160ff02191690831515021790555050565b60003073ffffffffffffffffffffffffffffffffffffffff163373ffffffffffffffffffffffffffffffffffffffff1614156200038657600080368080601f016020809104026020016040519081016040528093929190818152602001838380828437600081840152601f19601f820116905080830192505050505050509050600080369050905073ffffffffffffffffffffffffffffffffffffffff8183015116925050506200038a565b3390505b90565b6040518060800160405280604f8152602001620048bc604f91398051906020012081805190602001206040518060400160405280600181526020017f31000000000000000000000000000000000000000000000000000000000000008152508051906020012030620004046200043c60201b60201c565b60001b6040516020016200041d9594939291906200058b565b60405160208183030381529060405280519060200120600b8190555050565b6000804690508091505090565b828054620004579062000659565b90600052602060002090601f0160209004810192826200047b5760008555620004c7565b82601f106200049657805160ff1916838001178555620004c7565b82800160010185558215620004c7579182015b82811115620004c6578251825591602001919060010190620004a9565b5b509050620004d69190620004da565b5090565b5b80821115620004f5576000816000905550600101620004db565b5090565b6000815190506200050a81620006ec565b92915050565b600060208284031215620005295762000528620006be565b5b60006200053984828501620004f9565b91505092915050565b6200054d816200061b565b82525050565b6200055e816200062f565b82525050565b600062000573600e836200060a565b91506200058082620006c3565b602082019050919050565b600060a082019050620005a2600083018862000553565b620005b1602083018762000553565b620005c0604083018662000553565b620005cf606083018562000542565b620005de608083018462000553565b9695505050505050565b60006020820190508181036000830152620006038162000564565b9050919050565b600082825260208201905092915050565b6000620006288262000639565b9050919050565b6000819050919050565b600073ffffffffffffffffffffffffffffffffffffffff82169050919050565b600060028204905060018216806200067257607f821691505b602082108114156200068957620006886200068f565b5b50919050565b7f4e487b7100000000000000000000000000000000000000000000000000000000600052602260045260246000fd5b600080fd5b7f616c726561647920696e69746564000000000000000000000000000000000000600082015250565b620006f7816200061b565b81146200070357600080fd5b50565b6141a680620007166000396000f3fe60806040526004361061019c5760003560e01c80634f6ccce7116100ec578063a22cb4651161008a578063d547cfb711610064578063d547cfb7146105f3578063e8a3d4851461061e578063e985e9c514610649578063f2fde38b146106865761019c565b8063a22cb46514610564578063b88d4fde1461058d578063c87b56dd146105b65761019c565b8063715018a6116100c6578063715018a6146104ce578063755edd17146104e55780638da5cb5b1461050e57806395d89b41146105395761019c565b80634f6ccce7146104175780636352211e1461045457806370a08231146104915761019c565b806318160ddd116101595780632d0335ab116101335780632d0335ab146103495780632f745c59146103865780633408e470146103c357806342842e0e146103ee5761019c565b806318160ddd146102ca57806320379ee5146102f557806323b872dd146103205761019c565b806301ffc9a7146101a157806306fdde03146101de578063081812fc14610209578063095ea7b3146102465780630c53c51c1461026f5780630f7e59701461029f575b600080fd5b3480156101ad57600080fd5b506101c860048036038101906101c39190612c2b565b6106af565b6040516101d59190613259565b60405180910390f35b3480156101ea57600080fd5b506101f3610729565b604051610200919061333b565b60405180910390f35b34801561021557600080fd5b50610230600480360381019061022b9190612cb2565b6107bb565b60405161023d91906131b4565b60405180910390f35b34801561025257600080fd5b5061026d60048036038101906102689190612beb565b610840565b005b61028960048036038101906102849190612b54565b610958565b6040516102969190613319565b60405180910390f35b3480156102ab57600080fd5b506102b4610bca565b6040516102c1919061333b565b60405180910390f35b3480156102d657600080fd5b506102df610c03565b6040516102ec91906135dd565b60405180910390f35b34801561030157600080fd5b5061030a610c10565b6040516103179190613274565b60405180910390f35b34801561032c57600080fd5b5061034760048036038101906103429190612a3e565b610c1a565b005b34801561035557600080fd5b50610370600480360381019061036b91906129d1565b610c7a565b60405161037d91906135dd565b60405180910390f35b34801561039257600080fd5b506103ad60048036038101906103a89190612beb565b610cc3565b6040516103ba91906135dd565b60405180910390f35b3480156103cf57600080fd5b506103d8610d68565b6040516103e591906135dd565b60405180910390f35b3480156103fa57600080fd5b5061041560048036038101906104109190612a3e565b610d75565b005b34801561042357600080fd5b5061043e60048036038101906104399190612cb2565b610d95565b60405161044b91906135dd565b60405180910390f35b34801561046057600080fd5b5061047b60048036038101906104769190612cb2565b610e06565b60405161048891906131b4565b60405180910390f35b34801561049d57600080fd5b506104b860048036038101906104b391906129d1565b610eb8565b6040516104c591906135dd565b60405180910390f35b3480156104da57600080fd5b506104e3610f70565b005b3480156104f157600080fd5b5061050c600480360381019061050791906129d1565b610ff8565b005b34801561051a57600080fd5b50610523611096565b60405161053091906131b4565b60405180910390f35b34801561054557600080fd5b5061054e6110c0565b60405161055b919061333b565b60405180910390f35b34801561057057600080fd5b5061058b60048036038101906105869190612b14565b611152565b005b34801561059957600080fd5b506105b460048036038101906105af9190612a91565b6112d3565b005b3480156105c257600080fd5b506105dd60048036038101906105d89190612cb2565b611335565b6040516105ea919061333b565b60405180910390f35b3480156105ff57600080fd5b5061060861136f565b604051610615919061333b565b60405180910390f35b34801561062a57600080fd5b5061063361138f565b604051610640919061333b565b60405180910390f35b34801561065557600080fd5b50610670600480360381019061066b91906129fe565b6113af565b60405161067d9190613259565b60405180910390f35b34801561069257600080fd5b506106ad60048036038101906106a891906129d1565b6114b1565b005b60007f780e9d63000000000000000000000000000000000000000000000000000000007bffffffffffffffffffffffffffffffffffffffffffffffffffffffff1916827bffffffffffffffffffffffffffffffffffffffffffffffffffffffff1916148061072257506107218261165a565b5b9050919050565b60606000805461073890613848565b80601f016020809104026020016040519081016040528092919081815260200182805461076490613848565b80156107b15780601f10610786576101008083540402835291602001916107b1565b820191906000526020600020905b81548152906001019060200180831161079457829003601f168201915b5050505050905090565b60006107c68261173c565b610805576040517f08c379a00000000000000000000000000000000000000000000000000000000081526004016107fc906134fd565b60405180910390fd5b6004600083815260200190815260200160002060009054906101000a900473ffffffffffffffffffffffffffffffffffffffff169050919050565b600061084b82610e06565b90508073ffffffffffffffffffffffffffffffffffffffff168373ffffffffffffffffffffffffffffffffffffffff1614156108bc576040517f08c379a00000000000000000000000000000000000000000000000000000000081526004016108b39061357d565b60405180910390fd5b8073ffffffffffffffffffffffffffffffffffffffff166108db6117a8565b73ffffffffffffffffffffffffffffffffffffffff16148061090a5750610909816109046117a8565b6113af565b5b610949576040517f08c379a00000000000000000000000000000000000000000000000000000000081526004016109409061347d565b60405180910390fd5b61095383836117b7565b505050565b606060006040518060600160405280600c60008a73ffffffffffffffffffffffffffffffffffffffff1673ffffffffffffffffffffffffffffffffffffffff1681526020019081526020016000205481526020018873ffffffffffffffffffffffffffffffffffffffff1681526020018781525090506109db8782878787611870565b610a1a576040517f08c379a0000000000000000000000000000000000000000000000000000000008152600401610a119061355d565b60405180910390fd5b610a6d6001600c60008a73ffffffffffffffffffffffffffffffffffffffff1673ffffffffffffffffffffffffffffffffffffffff1681526020019081526020016000205461197990919063ffffffff16565b600c60008973ffffffffffffffffffffffffffffffffffffffff1673ffffffffffffffffffffffffffffffffffffffff168152602001908152602001600020819055507f5845892132946850460bff5a0083f71031bc5bf9aadcd40f1de79423eac9b10b873388604051610ae3939291906131cf565b60405180910390a16000803073ffffffffffffffffffffffffffffffffffffffff16888a604051602001610b18929190613131565b604051602081830303815290604052604051610b34919061311a565b6000604051808303816000865af19150503d8060008114610b71576040519150601f19603f3d011682016040523d82523d6000602084013e610b76565b606091505b509150915081610bbb576040517f08c379a0000000000000000000000000000000000000000000000000000000008152600401610bb2906133bd565b60405180910390fd5b80935050505095945050505050565b6040518060400160405280600181526020017f310000000000000000000000000000000000000000000000000000000000000081525081565b6000600880549050905090565b6000600b54905090565b610c2b610c256117a8565b8261198f565b610c6a576040517f08c379a0000000000000000000000000000000000000000000000000000000008152600401610c619061359d565b60405180910390fd5b610c75838383611a6d565b505050565b6000600c60008373ffffffffffffffffffffffffffffffffffffffff1673ffffffffffffffffffffffffffffffffffffffff168152602001908152602001600020549050919050565b6000610cce83610eb8565b8210610d0f576040517f08c379a0000000000000000000000000000000000000000000000000000000008152600401610d069061335d565b60405180910390fd5b600660008473ffffffffffffffffffffffffffffffffffffffff1673ffffffffffffffffffffffffffffffffffffffff168152602001908152602001600020600083815260200190815260200160002054905092915050565b6000804690508091505090565b610d90838383604051806020016040528060008152506112d3565b505050565b6000610d9f610c03565b8210610de0576040517f08c379a0000000000000000000000000000000000000000000000000000000008152600401610dd7906135bd565b60405180910390fd5b60088281548110610df457610df3613a0f565b5b90600052602060002001549050919050565b6000806002600084815260200190815260200160002060009054906101000a900473ffffffffffffffffffffffffffffffffffffffff169050600073ffffffffffffffffffffffffffffffffffffffff168173ffffffffffffffffffffffffffffffffffffffff161415610eaf576040517f08c379a0000000000000000000000000000000000000000000000000000000008152600401610ea6906134bd565b60405180910390fd5b80915050919050565b60008073ffffffffffffffffffffffffffffffffffffffff168273ffffffffffffffffffffffffffffffffffffffff161415610f29576040517f08c379a0000000000000000000000000000000000000000000000000000000008152600401610f209061349d565b60405180910390fd5b600360008373ffffffffffffffffffffffffffffffffffffffff1673ffffffffffffffffffffffffffffffffffffffff168152602001908152602001600020549050919050565b610f786117a8565b73ffffffffffffffffffffffffffffffffffffffff16610f96611096565b73ffffffffffffffffffffffffffffffffffffffff1614610fec576040517f08c379a0000000000000000000000000000000000000000000000000000000008152600401610fe39061351d565b60405180910390fd5b610ff66000611cc9565b565b6110006117a8565b73ffffffffffffffffffffffffffffffffffffffff1661101e611096565b73ffffffffffffffffffffffffffffffffffffffff1614611074576040517f08c379a000000000000000000000000000000000000000000000000000000000815260040161106b9061351d565b60405180910390fd5b600061107e611d8f565b905061108a8282611dac565b611092611f7a565b5050565b6000600d60009054906101000a900473ffffffffffffffffffffffffffffffffffffffff16905090565b6060600180546110cf90613848565b80601f01602080910402602001604051908101604052809291908181526020018280546110fb90613848565b80156111485780601f1061111d57610100808354040283529160200191611148565b820191906000526020600020905b81548152906001019060200180831161112b57829003601f168201915b5050505050905090565b61115a6117a8565b73ffffffffffffffffffffffffffffffffffffffff168273ffffffffffffffffffffffffffffffffffffffff1614156111c8576040517f08c379a00000000000000000000000000000000000000000000000000000000081526004016111bf9061341d565b60405180910390fd5b80600560006111d56117a8565b73ffffffffffffffffffffffffffffffffffffffff1673ffffffffffffffffffffffffffffffffffffffff16815260200190815260200160002060008473ffffffffffffffffffffffffffffffffffffffff1673ffffffffffffffffffffffffffffffffffffffff16815260200190815260200160002060006101000a81548160ff0219169083151502179055508173ffffffffffffffffffffffffffffffffffffffff166112826117a8565b73ffffffffffffffffffffffffffffffffffffffff167f17307eab39ab6107e8899845ad3d59bd9653f200f220920489ca2b5937696c31836040516112c79190613259565b60405180910390a35050565b6112e46112de6117a8565b8361198f565b611323576040517f08c379a000000000000000000000000000000000000000000000000000000000815260040161131a9061359d565b60405180910390fd5b61132f84848484611f94565b50505050565b606061133f61136f565b61134883611ff0565b604051602001611359929190613159565b6040516020818303038152906040529050919050565b60606040518060600160405280602781526020016140d860279139905090565b60606040518060600160405280602f8152602001614142602f9139905090565b600080600e60009054906101000a900473ffffffffffffffffffffffffffffffffffffffff1690508273ffffffffffffffffffffffffffffffffffffffff168173ffffffffffffffffffffffffffffffffffffffff1663c4552791866040518263ffffffff1660e01b815260040161142791906131b4565b60206040518083038186803b15801561143f57600080fd5b505afa158015611453573d6000803e3d6000fd5b505050506040513d601f19601f820116820180604052508101906114779190612c85565b73ffffffffffffffffffffffffffffffffffffffff16141561149d5760019150506114ab565b6114a78484612151565b9150505b92915050565b6114b96117a8565b73ffffffffffffffffffffffffffffffffffffffff166114d7611096565b73ffffffffffffffffffffffffffffffffffffffff161461152d576040517f08c379a00000000000000000000000000000000000000000000000000000000081526004016115249061351d565b60405180910390fd5b600073ffffffffffffffffffffffffffffffffffffffff168173ffffffffffffffffffffffffffffffffffffffff16141561159d576040517f08c379a00000000000000000000000000000000000000000000000000000000081526004016115949061339d565b60405180910390fd5b6115a681611cc9565b50565b60003073ffffffffffffffffffffffffffffffffffffffff163373ffffffffffffffffffffffffffffffffffffffff16141561165357600080368080601f016020809104026020016040519081016040528093929190818152602001838380828437600081840152601f19601f820116905080830192505050505050509050600080369050905073ffffffffffffffffffffffffffffffffffffffff818301511692505050611657565b3390505b90565b60007f80ac58cd000000000000000000000000000000000000000000000000000000007bffffffffffffffffffffffffffffffffffffffffffffffffffffffff1916827bffffffffffffffffffffffffffffffffffffffffffffffffffffffff1916148061172557507f5b5e139f000000000000000000000000000000000000000000000000000000007bffffffffffffffffffffffffffffffffffffffffffffffffffffffff1916827bffffffffffffffffffffffffffffffffffffffffffffffffffffffff1916145b806117355750611734826121e5565b5b9050919050565b60008073ffffffffffffffffffffffffffffffffffffffff166002600084815260200190815260200160002060009054906101000a900473ffffffffffffffffffffffffffffffffffffffff1673ffffffffffffffffffffffffffffffffffffffff1614159050919050565b60006117b26115a9565b905090565b816004600083815260200190815260200160002060006101000a81548173ffffffffffffffffffffffffffffffffffffffff021916908373ffffffffffffffffffffffffffffffffffffffff160217905550808273ffffffffffffffffffffffffffffffffffffffff1661182a83610e06565b73ffffffffffffffffffffffffffffffffffffffff167f8c5be1e5ebec7d5bd14f71427d1e84f3dd0314c0f7b2291e5b200ac8c7c3b92560405160405180910390a45050565b60008073ffffffffffffffffffffffffffffffffffffffff168673ffffffffffffffffffffffffffffffffffffffff1614156118e1576040517f08c379a00000000000000000000000000000000000000000000000000000000081526004016118d89061345d565b60405180910390fd5b60016118f46118ef8761224f565b6122b7565b8386866040516000815260200160405260405161191494939291906132d4565b6020604051602081039080840390855afa158015611936573d6000803e3d6000fd5b5050506020604051035173ffffffffffffffffffffffffffffffffffffffff168673ffffffffffffffffffffffffffffffffffffffff1614905095945050505050565b60008183611987919061369c565b905092915050565b600061199a8261173c565b6119d9576040517f08c379a00000000000000000000000000000000000000000000000000000000081526004016119d09061343d565b60405180910390fd5b60006119e483610e06565b90508073ffffffffffffffffffffffffffffffffffffffff168473ffffffffffffffffffffffffffffffffffffffff161480611a5357508373ffffffffffffffffffffffffffffffffffffffff16611a3b846107bb565b73ffffffffffffffffffffffffffffffffffffffff16145b80611a645750611a6381856113af565b5b91505092915050565b8273ffffffffffffffffffffffffffffffffffffffff16611a8d82610e06565b73ffffffffffffffffffffffffffffffffffffffff1614611ae3576040517f08c379a0000000000000000000000000000000000000000000000000000000008152600401611ada9061353d565b60405180910390fd5b600073ffffffffffffffffffffffffffffffffffffffff168273ffffffffffffffffffffffffffffffffffffffff161415611b53576040517f08c379a0000000000000000000000000000000000000000000000000000000008152600401611b4a906133fd565b60405180910390fd5b611b5e8383836122f0565b611b696000826117b7565b6001600360008573ffffffffffffffffffffffffffffffffffffffff1673ffffffffffffffffffffffffffffffffffffffff1681526020019081526020016000206000828254611bb99190613723565b925050819055506001600360008473ffffffffffffffffffffffffffffffffffffffff1673ffffffffffffffffffffffffffffffffffffffff1681526020019081526020016000206000828254611c10919061369c565b92505081905550816002600083815260200190815260200160002060006101000a81548173ffffffffffffffffffffffffffffffffffffffff021916908373ffffffffffffffffffffffffffffffffffffffff160217905550808273ffffffffffffffffffffffffffffffffffffffff168473ffffffffffffffffffffffffffffffffffffffff167fddf252ad1be2c89b69c2b068fc378daa952ba7f163c4a11628f55a4df523b3ef60405160405180910390a4505050565b6000600d60009054906101000a900473ffffffffffffffffffffffffffffffffffffffff16905081600d60006101000a81548173ffffffffffffffffffffffffffffffffffffffff021916908373ffffffffffffffffffffffffffffffffffffffff1602179055508173ffffffffffffffffffffffffffffffffffffffff168173ffffffffffffffffffffffffffffffffffffffff167f8be0079c531659141344cd1fd0a4f28419497f9722a3daafe3b4186f6b6457e060405160405180910390a35050565b6000611da76001600f5461197990919063ffffffff16565b905090565b600073ffffffffffffffffffffffffffffffffffffffff168273ffffffffffffffffffffffffffffffffffffffff161415611e1c576040517f08c379a0000000000000000000000000000000000000000000000000000000008152600401611e13906134dd565b60405180910390fd5b611e258161173c565b15611e65576040517f08c379a0000000000000000000000000000000000000000000000000000000008152600401611e5c906133dd565b60405180910390fd5b611e71600083836122f0565b6001600360008473ffffffffffffffffffffffffffffffffffffffff1673ffffffffffffffffffffffffffffffffffffffff1681526020019081526020016000206000828254611ec1919061369c565b92505081905550816002600083815260200190815260200160002060006101000a81548173ffffffffffffffffffffffffffffffffffffffff021916908373ffffffffffffffffffffffffffffffffffffffff160217905550808273ffffffffffffffffffffffffffffffffffffffff16600073ffffffffffffffffffffffffffffffffffffffff167fddf252ad1be2c89b69c2b068fc378daa952ba7f163c4a11628f55a4df523b3ef60405160405180910390a45050565b600f6000815480929190611f8d906138ab565b9190505550565b611f9f848484611a6d565b611fab84848484612404565b611fea576040517f08c379a0000000000000000000000000000000000000000000000000000000008152600401611fe19061337d565b60405180910390fd5b50505050565b60606000821415612038576040518060400160405280600181526020017f3000000000000000000000000000000000000000000000000000000000000000815250905061214c565b600082905060005b6000821461206a578080612053906138ab565b915050600a8261206391906136f2565b9150612040565b60008167ffffffffffffffff81111561208657612085613a3e565b5b6040519080825280601f01601f1916602001820160405280156120b85781602001600182028036833780820191505090505b5090505b60008514612145576001826120d19190613723565b9150600a856120e09190613922565b60306120ec919061369c565b60f81b81838151811061210257612101613a0f565b5b60200101907effffffffffffffffffffffffffffffffffffffffffffffffffffffffffffff1916908160001a905350600a8561213e91906136f2565b94506120bc565b8093505050505b919050565b6000600560008473ffffffffffffffffffffffffffffffffffffffff1673ffffffffffffffffffffffffffffffffffffffff16815260200190815260200160002060008373ffffffffffffffffffffffffffffffffffffffff1673ffffffffffffffffffffffffffffffffffffffff16815260200190815260200160002060009054906101000a900460ff16905092915050565b60007f01ffc9a7000000000000000000000000000000000000000000000000000000007bffffffffffffffffffffffffffffffffffffffffffffffffffffffff1916827bffffffffffffffffffffffffffffffffffffffffffffffffffffffff1916149050919050565b60006040518060800160405280604381526020016140ff60439139805190602001208260000151836020015184604001518051906020012060405160200161229a949392919061328f565b604051602081830303815290604052805190602001209050919050565b60006122c1610c10565b826040516020016122d392919061317d565b604051602081830303815290604052805190602001209050919050565b6122fb83838361259b565b600073ffffffffffffffffffffffffffffffffffffffff168373ffffffffffffffffffffffffffffffffffffffff16141561233e57612339816125a0565b61237d565b8173ffffffffffffffffffffffffffffffffffffffff168373ffffffffffffffffffffffffffffffffffffffff161461237c5761237b83826125e9565b5b5b600073ffffffffffffffffffffffffffffffffffffffff168273ffffffffffffffffffffffffffffffffffffffff1614156123c0576123bb81612756565b6123ff565b8273ffffffffffffffffffffffffffffffffffffffff168273ffffffffffffffffffffffffffffffffffffffff16146123fe576123fd8282612827565b5b5b505050565b60006124258473ffffffffffffffffffffffffffffffffffffffff166128a6565b1561258e578373ffffffffffffffffffffffffffffffffffffffff1663150b7a0261244e6117a8565b8786866040518563ffffffff1660e01b8152600401612470949392919061320d565b602060405180830381600087803b15801561248a57600080fd5b505af19250505080156124bb57506040513d601f19601f820116820180604052508101906124b89190612c58565b60015b61253e573d80600081146124eb576040519150601f19603f3d011682016040523d82523d6000602084013e6124f0565b606091505b50600081511415612536576040517f08c379a000000000000000000000000000000000000000000000000000000000815260040161252d9061337d565b60405180910390fd5b805181602001fd5b63150b7a0260e01b7bffffffffffffffffffffffffffffffffffffffffffffffffffffffff1916817bffffffffffffffffffffffffffffffffffffffffffffffffffffffff191614915050612593565b600190505b949350505050565b505050565b6008805490506009600083815260200190815260200160002081905550600881908060018154018082558091505060019003906000526020600020016000909190919091505550565b600060016125f684610eb8565b6126009190613723565b90506000600760008481526020019081526020016000205490508181146126e5576000600660008673ffffffffffffffffffffffffffffffffffffffff1673ffffffffffffffffffffffffffffffffffffffff168152602001908152602001600020600084815260200190815260200160002054905080600660008773ffffffffffffffffffffffffffffffffffffffff1673ffffffffffffffffffffffffffffffffffffffff168152602001908152602001600020600084815260200190815260200160002081905550816007600083815260200190815260200160002081905550505b6007600084815260200190815260200160002060009055600660008573ffffffffffffffffffffffffffffffffffffffff1673ffffffffffffffffffffffffffffffffffffffff16815260200190815260200160002060008381526020019081526020016000206000905550505050565b6000600160088054905061276a9190613723565b905060006009600084815260200190815260200160002054905060006008838154811061279a57612799613a0f565b5b9060005260206000200154905080600883815481106127bc576127bb613a0f565b5b90600052602060002001819055508160096000838152602001908152602001600020819055506009600085815260200190815260200160002060009055600880548061280b5761280a6139e0565b5b6001900381819060005260206000200160009055905550505050565b600061283283610eb8565b905081600660008573ffffffffffffffffffffffffffffffffffffffff1673ffffffffffffffffffffffffffffffffffffffff168152602001908152602001600020600083815260200190815260200160002081905550806007600084815260200190815260200160002081905550505050565b600080823b905060008111915050919050565b60006128cc6128c78461361d565b6135f8565b9050828152602081018484840111156128e8576128e7613a72565b5b6128f3848285613806565b509392505050565b60008135905061290a81614036565b92915050565b60008135905061291f8161404d565b92915050565b60008135905061293481614064565b92915050565b6000813590506129498161407b565b92915050565b60008151905061295e8161407b565b92915050565b600082601f83011261297957612978613a6d565b5b81356129898482602086016128b9565b91505092915050565b6000815190506129a181614092565b92915050565b6000813590506129b6816140a9565b92915050565b6000813590506129cb816140c0565b92915050565b6000602082840312156129e7576129e6613a7c565b5b60006129f5848285016128fb565b91505092915050565b60008060408385031215612a1557612a14613a7c565b5b6000612a23858286016128fb565b9250506020612a34858286016128fb565b9150509250929050565b600080600060608486031215612a5757612a56613a7c565b5b6000612a65868287016128fb565b9350506020612a76868287016128fb565b9250506040612a87868287016129a7565b9150509250925092565b60008060008060808587031215612aab57612aaa613a7c565b5b6000612ab9878288016128fb565b9450506020612aca878288016128fb565b9350506040612adb878288016129a7565b925050606085013567ffffffffffffffff811115612afc57612afb613a77565b5b612b0887828801612964565b91505092959194509250565b60008060408385031215612b2b57612b2a613a7c565b5b6000612b39858286016128fb565b9250506020612b4a85828601612910565b9150509250929050565b600080600080600060a08688031215612b7057612b6f613a7c565b5b6000612b7e888289016128fb565b955050602086013567ffffffffffffffff811115612b9f57612b9e613a77565b5b612bab88828901612964565b9450506040612bbc88828901612925565b9350506060612bcd88828901612925565b9250506080612bde888289016129bc565b9150509295509295909350565b60008060408385031215612c0257612c01613a7c565b5b6000612c10858286016128fb565b9250506020612c21858286016129a7565b9150509250929050565b600060208284031215612c4157612c40613a7c565b5b6000612c4f8482850161293a565b91505092915050565b600060208284031215612c6e57612c6d613a7c565b5b6000612c7c8482850161294f565b91505092915050565b600060208284031215612c9b57612c9a613a7c565b5b6000612ca984828501612992565b91505092915050565b600060208284031215612cc857612cc7613a7c565b5b6000612cd6848285016129a7565b91505092915050565b612ce881613769565b82525050565b612cf781613757565b82525050565b612d0e612d0982613757565b6138f4565b82525050565b612d1d8161377b565b82525050565b612d2c81613787565b82525050565b612d43612d3e82613787565b613906565b82525050565b6000612d548261364e565b612d5e8185613664565b9350612d6e818560208601613815565b612d7781613a81565b840191505092915050565b6000612d8d8261364e565b612d978185613675565b9350612da7818560208601613815565b80840191505092915050565b6000612dbe82613659565b612dc88185613680565b9350612dd8818560208601613815565b612de181613a81565b840191505092915050565b6000612df782613659565b612e018185613691565b9350612e11818560208601613815565b80840191505092915050565b6000612e2a602b83613680565b9150612e3582613a9f565b604082019050919050565b6000612e4d603283613680565b9150612e5882613aee565b604082019050919050565b6000612e70602683613680565b9150612e7b82613b3d565b604082019050919050565b6000612e93601c83613680565b9150612e9e82613b8c565b602082019050919050565b6000612eb6601c83613680565b9150612ec182613bb5565b602082019050919050565b6000612ed9600283613691565b9150612ee482613bde565b600282019050919050565b6000612efc602483613680565b9150612f0782613c07565b604082019050919050565b6000612f1f601983613680565b9150612f2a82613c56565b602082019050919050565b6000612f42602c83613680565b9150612f4d82613c7f565b604082019050919050565b6000612f65602583613680565b9150612f7082613cce565b604082019050919050565b6000612f88603883613680565b9150612f9382613d1d565b604082019050919050565b6000612fab602a83613680565b9150612fb682613d6c565b604082019050919050565b6000612fce602983613680565b9150612fd982613dbb565b604082019050919050565b6000612ff1602083613680565b9150612ffc82613e0a565b602082019050919050565b6000613014602c83613680565b915061301f82613e33565b604082019050919050565b6000613037602083613680565b915061304282613e82565b602082019050919050565b600061305a602983613680565b915061306582613eab565b604082019050919050565b600061307d602183613680565b915061308882613efa565b604082019050919050565b60006130a0602183613680565b91506130ab82613f49565b604082019050919050565b60006130c3603183613680565b91506130ce82613f98565b604082019050919050565b60006130e6602c83613680565b91506130f182613fe7565b604082019050919050565b613105816137ef565b82525050565b613114816137f9565b82525050565b60006131268284612d82565b915081905092915050565b600061313d8285612d82565b91506131498284612cfd565b6014820191508190509392505050565b60006131658285612dec565b91506131718284612dec565b91508190509392505050565b600061318882612ecc565b91506131948285612d32565b6020820191506131a48284612d32565b6020820191508190509392505050565b60006020820190506131c96000830184612cee565b92915050565b60006060820190506131e46000830186612cee565b6131f16020830185612cdf565b81810360408301526132038184612d49565b9050949350505050565b60006080820190506132226000830187612cee565b61322f6020830186612cee565b61323c60408301856130fc565b818103606083015261324e8184612d49565b905095945050505050565b600060208201905061326e6000830184612d14565b92915050565b60006020820190506132896000830184612d23565b92915050565b60006080820190506132a46000830187612d23565b6132b160208301866130fc565b6132be6040830185612cee565b6132cb6060830184612d23565b95945050505050565b60006080820190506132e96000830187612d23565b6132f6602083018661310b565b6133036040830185612d23565b6133106060830184612d23565b95945050505050565b600060208201905081810360008301526133338184612d49565b905092915050565b600060208201905081810360008301526133558184612db3565b905092915050565b6000602082019050818103600083015261337681612e1d565b9050919050565b6000602082019050818103600083015261339681612e40565b9050919050565b600060208201905081810360008301526133b681612e63565b9050919050565b600060208201905081810360008301526133d681612e86565b9050919050565b600060208201905081810360008301526133f681612ea9565b9050919050565b6000602082019050818103600083015261341681612eef565b9050919050565b6000602082019050818103600083015261343681612f12565b9050919050565b6000602082019050818103600083015261345681612f35565b9050919050565b6000602082019050818103600083015261347681612f58565b9050919050565b6000602082019050818103600083015261349681612f7b565b9050919050565b600060208201905081810360008301526134b681612f9e565b9050919050565b600060208201905081810360008301526134d681612fc1565b9050919050565b600060208201905081810360008301526134f681612fe4565b9050919050565b6000602082019050818103600083015261351681613007565b9050919050565b600060208201905081810360008301526135368161302a565b9050919050565b600060208201905081810360008301526135568161304d565b9050919050565b6000602082019050818103600083015261357681613070565b9050919050565b6000602082019050818103600083015261359681613093565b9050919050565b600060208201905081810360008301526135b6816130b6565b9050919050565b600060208201905081810360008301526135d6816130d9565b9050919050565b60006020820190506135f260008301846130fc565b92915050565b6000613602613613565b905061360e828261387a565b919050565b6000604051905090565b600067ffffffffffffffff82111561363857613637613a3e565b5b61364182613a81565b9050602081019050919050565b600081519050919050565b600081519050919050565b600082825260208201905092915050565b600081905092915050565b600082825260208201905092915050565b600081905092915050565b60006136a7826137ef565b91506136b2836137ef565b9250827fffffffffffffffffffffffffffffffffffffffffffffffffffffffffffffffff038211156136e7576136e6613953565b5b828201905092915050565b60006136fd826137ef565b9150613708836137ef565b92508261371857613717613982565b5b828204905092915050565b600061372e826137ef565b9150613739836137ef565b92508282101561374c5761374b613953565b5b828203905092915050565b6000613762826137cf565b9050919050565b6000613774826137cf565b9050919050565b60008115159050919050565b6000819050919050565b60007fffffffff0000000000000000000000000000000000000000000000000000000082169050919050565b60006137c882613757565b9050919050565b600073ffffffffffffffffffffffffffffffffffffffff82169050919050565b6000819050919050565b600060ff82169050919050565b82818337600083830152505050565b60005b83811015613833578082015181840152602081019050613818565b83811115613842576000848401525b50505050565b6000600282049050600182168061386057607f821691505b60208210811415613874576138736139b1565b5b50919050565b61388382613a81565b810181811067ffffffffffffffff821117156138a2576138a1613a3e565b5b80604052505050565b60006138b6826137ef565b91507fffffffffffffffffffffffffffffffffffffffffffffffffffffffffffffffff8214156138e9576138e8613953565b5b600182019050919050565b60006138ff82613910565b9050919050565b6000819050919050565b600061391b82613a92565b9050919050565b600061392d826137ef565b9150613938836137ef565b92508261394857613947613982565b5b828206905092915050565b7f4e487b7100000000000000000000000000000000000000000000000000000000600052601160045260246000fd5b7f4e487b7100000000000000000000000000000000000000000000000000000000600052601260045260246000fd5b7f4e487b7100000000000000000000000000000000000000000000000000000000600052602260045260246000fd5b7f4e487b7100000000000000000000000000000000000000000000000000000000600052603160045260246000fd5b7f4e487b7100000000000000000000000000000000000000000000000000000000600052603260045260246000fd5b7f4e487b7100000000000000000000000000000000000000000000000000000000600052604160045260246000fd5b600080fd5b600080fd5b600080fd5b600080fd5b6000601f19601f8301169050919050565b60008160601b9050919050565b7f455243373231456e756d657261626c653a206f776e657220696e646578206f7560008201527f74206f6620626f756e6473000000000000000000000000000000000000000000602082015250565b7f4552433732313a207472616e7366657220746f206e6f6e20455243373231526560008201527f63656976657220696d706c656d656e7465720000000000000000000000000000602082015250565b7f4f776e61626c653a206e6577206f776e657220697320746865207a65726f206160008201527f6464726573730000000000000000000000000000000000000000000000000000602082015250565b7f46756e6374696f6e2063616c6c206e6f74207375636365737366756c00000000600082015250565b7f4552433732313a20746f6b656e20616c7265616479206d696e74656400000000600082015250565b7f1901000000000000000000000000000000000000000000000000000000000000600082015250565b7f4552433732313a207472616e7366657220746f20746865207a65726f2061646460008201527f7265737300000000000000000000000000000000000000000000000000000000602082015250565b7f4552433732313a20617070726f766520746f2063616c6c657200000000000000600082015250565b7f4552433732313a206f70657261746f7220717565727920666f72206e6f6e657860008201527f697374656e7420746f6b656e0000000000000000000000000000000000000000602082015250565b7f4e61746976654d6574615472616e73616374696f6e3a20494e56414c49445f5360008201527f49474e4552000000000000000000000000000000000000000000000000000000602082015250565b7f4552433732313a20617070726f76652063616c6c6572206973206e6f74206f7760008201527f6e6572206e6f7220617070726f76656420666f7220616c6c0000000000000000602082015250565b7f4552433732313a2062616c616e636520717565727920666f7220746865207a6560008201527f726f206164647265737300000000000000000000000000000000000000000000602082015250565b7f4552433732313a206f776e657220717565727920666f72206e6f6e657869737460008201527f656e7420746f6b656e0000000000000000000000000000000000000000000000602082015250565b7f4552433732313a206d696e7420746f20746865207a65726f2061646472657373600082015250565b7f4552433732313a20617070726f76656420717565727920666f72206e6f6e657860008201527f697374656e7420746f6b656e0000000000000000000000000000000000000000602082015250565b7f4f776e61626c653a2063616c6c6572206973206e6f7420746865206f776e6572600082015250565b7f4552433732313a207472616e73666572206f6620746f6b656e2074686174206960008201527f73206e6f74206f776e0000000000000000000000000000000000000000000000602082015250565b7f5369676e657220616e64207369676e617475726520646f206e6f74206d61746360008201527f6800000000000000000000000000000000000000000000000000000000000000602082015250565b7f4552433732313a20617070726f76616c20746f2063757272656e74206f776e6560008201527f7200000000000000000000000000000000000000000000000000000000000000602082015250565b7f4552433732313a207472616e736665722063616c6c6572206973206e6f74206f60008201527f776e6572206e6f7220617070726f766564000000000000000000000000000000602082015250565b7f455243373231456e756d657261626c653a20676c6f62616c20696e646578206f60008201527f7574206f6620626f756e64730000000000000000000000000000000000000000602082015250565b61403f81613757565b811461404a57600080fd5b50565b6140568161377b565b811461406157600080fd5b50565b61406d81613787565b811461407857600080fd5b50565b61408481613791565b811461408f57600080fd5b50565b61409b816137bd565b81146140a657600080fd5b50565b6140b2816137ef565b81146140bd57600080fd5b50565b6140c9816137f9565b81146140d457600080fd5b5056fe68747470733a2f2f616e696d616c2d6b696e67646f6d2e7261642e6c6976652f70616e6461732f4d6574615472616e73616374696f6e2875696e74323536206e6f6e63652c616464726573732066726f6d2c62797465732066756e6374696f6e5369676e61747572652968747470733a2f2f616e696d616c2d6b696e67646f6d2e7261642e6c6976652f70616e6461732f636f6e7472616374a26469706673582212202b171f2ca9ae6cf5cc295d10229322b3086fbe04768309c36d6dc6323f7e460564736f6c63430008060033454950373132446f6d61696e28737472696e67206e616d652c737472696e672076657273696f6e2c6164647265737320766572696679696e67436f6e74726163742c627974657333322073616c7429",
  "immutableReferences": {},
  "source": "// SPDX-License-Identifier: MIT\npragma solidity ^0.8.0;\n\nimport \"./ERC721Tradable.sol\";\n\n/// @title RadPanda ERC-721 token contract.\ncontract RadPanda is ERC721Tradable {\n  constructor(address _proxyRegistryAddress)\n    ERC721Tradable(\"RadKingdom Pandas\", \"PANDA\", _proxyRegistryAddress)\n  {}\n\n  function baseTokenURI() override public pure returns (string memory) {\n    return \"https://animal-kingdom.rad.live/pandas/\";\n  }\n\n  function contractURI() public pure returns (string memory) {\n    return \"https://animal-kingdom.rad.live/pandas/contract\";\n  }\n}",
  "sourcePath": "/Users/dom/repos/rad-pandas/blockchain/contracts/RadPanda.sol",
  "compiler": {
    "name": "solc",
    "version": "0.8.6+commit.11564f7e.Emscripten.clang"
  },
  "schemaVersion": "3.4.2",
  "updatedAt": "2021-08-10T21:29:43.906Z",
  "networkType": "ethereum",
  "devdoc": {
    "kind": "dev",
    "methods": {
      "approve(address,uint256)": {
        "details": "See {IERC721-approve}."
      },
      "balanceOf(address)": {
        "details": "See {IERC721-balanceOf}."
      },
      "getApproved(uint256)": {
        "details": "See {IERC721-getApproved}."
      },
      "mintTo(address)": {
        "details": "Mints a token to an address with a tokenURI.",
        "params": {
          "_to": "address of the future owner of the token"
        }
      },
      "name()": {
        "details": "See {IERC721Metadata-name}."
      },
      "owner()": {
        "details": "Returns the address of the current owner."
      },
      "ownerOf(uint256)": {
        "details": "See {IERC721-ownerOf}."
      },
      "renounceOwnership()": {
        "details": "Leaves the contract without owner. It will not be possible to call `onlyOwner` functions anymore. Can only be called by the current owner. NOTE: Renouncing ownership will leave the contract without an owner, thereby removing any functionality that is only available to the owner."
      },
      "safeTransferFrom(address,address,uint256)": {
        "details": "See {IERC721-safeTransferFrom}."
      },
      "safeTransferFrom(address,address,uint256,bytes)": {
        "details": "See {IERC721-safeTransferFrom}."
      },
      "setApprovalForAll(address,bool)": {
        "details": "See {IERC721-setApprovalForAll}."
      },
      "supportsInterface(bytes4)": {
        "details": "See {IERC165-supportsInterface}."
      },
      "symbol()": {
        "details": "See {IERC721Metadata-symbol}."
      },
      "tokenByIndex(uint256)": {
        "details": "See {IERC721Enumerable-tokenByIndex}."
      },
      "tokenOfOwnerByIndex(address,uint256)": {
        "details": "See {IERC721Enumerable-tokenOfOwnerByIndex}."
      },
      "totalSupply()": {
        "details": "See {IERC721Enumerable-totalSupply}."
      },
      "transferFrom(address,address,uint256)": {
        "details": "See {IERC721-transferFrom}."
      },
      "transferOwnership(address)": {
        "details": "Transfers ownership of the contract to a new account (`newOwner`). Can only be called by the current owner."
      }
    },
    "title": "RadPanda ERC-721 token contract.",
    "version": 1
  },
  "userdoc": {
    "kind": "user",
    "methods": {
      "isApprovedForAll(address,address)": {
        "notice": "Override isApprovedForAll to whitelist user's OpenSea proxy accounts to enable gas-less listings."
      }
    },
    "version": 1
  }
}